{
  "_format": "hh-sol-artifact-1",
  "contractName": "PikaFractionalAttestationToken",
  "sourceName": "contracts/PikaPay.sol",
  "abi": [
    {
      "inputs": [
        {
          "internalType": "contract PikaPay",
          "name": "_pikaPay",
          "type": "address"
        },
        {
          "internalType": "uint256",
          "name": "_batchId",
          "type": "uint256"
        },
        {
          "internalType": "uint256",
          "name": "_supply",
          "type": "uint256"
        }
      ],
      "stateMutability": "nonpayable",
      "type": "constructor"
    },
    {
      "inputs": [
        {
          "internalType": "address",
          "name": "spender",
          "type": "address"
        },
        {
          "internalType": "uint256",
          "name": "allowance",
          "type": "uint256"
        },
        {
          "internalType": "uint256",
          "name": "needed",
          "type": "uint256"
        }
      ],
      "name": "ERC20InsufficientAllowance",
      "type": "error"
    },
    {
      "inputs": [
        {
          "internalType": "address",
          "name": "sender",
          "type": "address"
        },
        {
          "internalType": "uint256",
          "name": "balance",
          "type": "uint256"
        },
        {
          "internalType": "uint256",
          "name": "needed",
          "type": "uint256"
        }
      ],
      "name": "ERC20InsufficientBalance",
      "type": "error"
    },
    {
      "inputs": [
        {
          "internalType": "address",
          "name": "approver",
          "type": "address"
        }
      ],
      "name": "ERC20InvalidApprover",
      "type": "error"
    },
    {
      "inputs": [
        {
          "internalType": "address",
          "name": "receiver",
          "type": "address"
        }
      ],
      "name": "ERC20InvalidReceiver",
      "type": "error"
    },
    {
      "inputs": [
        {
          "internalType": "address",
          "name": "sender",
          "type": "address"
        }
      ],
      "name": "ERC20InvalidSender",
      "type": "error"
    },
    {
      "inputs": [
        {
          "internalType": "address",
          "name": "spender",
          "type": "address"
        }
      ],
      "name": "ERC20InvalidSpender",
      "type": "error"
    },
    {
      "anonymous": false,
      "inputs": [
        {
          "indexed": true,
          "internalType": "address",
          "name": "owner",
          "type": "address"
        },
        {
          "indexed": true,
          "internalType": "address",
          "name": "spender",
          "type": "address"
        },
        {
          "indexed": false,
          "internalType": "uint256",
          "name": "value",
          "type": "uint256"
        }
      ],
      "name": "Approval",
      "type": "event"
    },
    {
      "anonymous": false,
      "inputs": [
        {
          "indexed": true,
          "internalType": "address",
          "name": "from",
          "type": "address"
        },
        {
          "indexed": true,
          "internalType": "address",
          "name": "to",
          "type": "address"
        },
        {
          "indexed": false,
          "internalType": "uint256",
          "name": "value",
          "type": "uint256"
        }
      ],
      "name": "Transfer",
      "type": "event"
    },
    {
      "inputs": [
        {
          "internalType": "address",
          "name": "owner",
          "type": "address"
        },
        {
          "internalType": "address",
          "name": "spender",
          "type": "address"
        }
      ],
      "name": "allowance",
      "outputs": [
        {
          "internalType": "uint256",
          "name": "",
          "type": "uint256"
        }
      ],
      "stateMutability": "view",
      "type": "function"
    },
    {
      "inputs": [
        {
          "internalType": "address",
          "name": "spender",
          "type": "address"
        },
        {
          "internalType": "uint256",
          "name": "value",
          "type": "uint256"
        }
      ],
      "name": "approve",
      "outputs": [
        {
          "internalType": "bool",
          "name": "",
          "type": "bool"
        }
      ],
      "stateMutability": "nonpayable",
      "type": "function"
    },
    {
      "inputs": [
        {
          "internalType": "address",
          "name": "account",
          "type": "address"
        }
      ],
      "name": "balanceOf",
      "outputs": [
        {
          "internalType": "uint256",
          "name": "",
          "type": "uint256"
        }
      ],
      "stateMutability": "view",
      "type": "function"
    },
    {
      "inputs": [],
      "name": "batchId",
      "outputs": [
        {
          "internalType": "uint256",
          "name": "",
          "type": "uint256"
        }
      ],
      "stateMutability": "view",
      "type": "function"
    },
    {
      "inputs": [],
      "name": "decimals",
      "outputs": [
        {
          "internalType": "uint8",
          "name": "",
          "type": "uint8"
        }
      ],
      "stateMutability": "view",
      "type": "function"
    },
    {
      "inputs": [],
      "name": "name",
      "outputs": [
        {
          "internalType": "string",
          "name": "",
          "type": "string"
        }
      ],
      "stateMutability": "view",
      "type": "function"
    },
    {
      "inputs": [],
      "name": "pikaPay",
      "outputs": [
        {
          "internalType": "contract PikaPay",
          "name": "",
          "type": "address"
        }
      ],
      "stateMutability": "view",
      "type": "function"
    },
    {
      "inputs": [],
      "name": "symbol",
      "outputs": [
        {
          "internalType": "string",
          "name": "",
          "type": "string"
        }
      ],
      "stateMutability": "view",
      "type": "function"
    },
    {
      "inputs": [],
      "name": "totalSupply",
      "outputs": [
        {
          "internalType": "uint256",
          "name": "",
          "type": "uint256"
        }
      ],
      "stateMutability": "view",
      "type": "function"
    },
    {
      "inputs": [
        {
          "internalType": "address",
          "name": "to",
          "type": "address"
        },
        {
          "internalType": "uint256",
          "name": "value",
          "type": "uint256"
        }
      ],
      "name": "transfer",
      "outputs": [
        {
          "internalType": "bool",
          "name": "",
          "type": "bool"
        }
      ],
      "stateMutability": "nonpayable",
      "type": "function"
    },
    {
      "inputs": [
        {
          "internalType": "address",
          "name": "from",
          "type": "address"
        },
        {
          "internalType": "address",
          "name": "to",
          "type": "address"
        },
        {
          "internalType": "uint256",
          "name": "value",
          "type": "uint256"
        }
      ],
      "name": "transferFrom",
      "outputs": [
        {
          "internalType": "bool",
          "name": "",
          "type": "bool"
        }
      ],
      "stateMutability": "nonpayable",
      "type": "function"
    }
  ],
  "bytecode": "0x60806040523480156200001157600080fd5b5060405162001be938038062001be98339818101604052810190620000379190620006e9565b62000048826200012860201b60201c565b6040516020016200005a9190620007e4565b6040516020818303038152906040526040518060400160405280600481526020017f53464154000000000000000000000000000000000000000000000000000000008152508160039081620000b0919062000a73565b508060049081620000c2919062000a73565b50505082600560006101000a81548173ffffffffffffffffffffffffffffffffffffffff021916908373ffffffffffffffffffffffffffffffffffffffff160217905550816006819055506200011f33826200020760201b60201c565b50505062000c8c565b6060600060016200013f846200029460201b60201c565b01905060008167ffffffffffffffff8111156200016157620001606200080e565b5b6040519080825280601f01601f191660200182016040528015620001945781602001600182028036833780820191505090505b509050600082602001820190505b600115620001fc578080600190039150507f3031323334353637383961626364656600000000000000000000000000000000600a86061a8153600a8581620001ef57620001ee62000b5a565b5b04945060008503620001a2575b819350505050919050565b600073ffffffffffffffffffffffffffffffffffffffff168273ffffffffffffffffffffffffffffffffffffffff16036200027c5760006040517fec442f0500000000000000000000000000000000000000000000000000000000815260040162000273919062000b9a565b60405180910390fd5b62000290600083836200040060201b60201c565b5050565b600080600090507a184f03e93ff9f4daa797ed6e38ed64bf6a1f0100000000000000008310620002f6577a184f03e93ff9f4daa797ed6e38ed64bf6a1f0100000000000000008381620002ec57620002eb62000b5a565b5b0492506040810190505b6d04ee2d6d415b85acef8100000000831062000337576d04ee2d6d415b85acef810000000083816200032d576200032c62000b5a565b5b0492506020810190505b662386f26fc1000083106200036a57662386f26fc10000838162000360576200035f62000b5a565b5b0492506010810190505b6305f5e100831062000397576305f5e10083816200038d576200038c62000b5a565b5b0492506008810190505b6127108310620003c0576127108381620003b657620003b562000b5a565b5b0492506004810190505b60648310620003e75760648381620003dd57620003dc62000b5a565b5b0492506002810190505b600a8310620003f7576001810190505b80915050919050565b600073ffffffffffffffffffffffffffffffffffffffff168373ffffffffffffffffffffffffffffffffffffffff16036200045657806002600082825462000449919062000be6565b925050819055506200052c565b60008060008573ffffffffffffffffffffffffffffffffffffffff1673ffffffffffffffffffffffffffffffffffffffff16815260200190815260200160002054905081811015620004e5578381836040517fe450d38c000000000000000000000000000000000000000000000000000000008152600401620004dc9392919062000c32565b60405180910390fd5b8181036000808673ffffffffffffffffffffffffffffffffffffffff1673ffffffffffffffffffffffffffffffffffffffff16815260200190815260200160002081905550505b600073ffffffffffffffffffffffffffffffffffffffff168273ffffffffffffffffffffffffffffffffffffffff1603620005775780600260008282540392505081905550620005c4565b806000808473ffffffffffffffffffffffffffffffffffffffff1673ffffffffffffffffffffffffffffffffffffffff168152602001908152602001600020600082825401925050819055505b8173ffffffffffffffffffffffffffffffffffffffff168373ffffffffffffffffffffffffffffffffffffffff167fddf252ad1be2c89b69c2b068fc378daa952ba7f163c4a11628f55a4df523b3ef8360405162000623919062000c6f565b60405180910390a3505050565b600080fd5b600073ffffffffffffffffffffffffffffffffffffffff82169050919050565b6000620006628262000635565b9050919050565b6000620006768262000655565b9050919050565b620006888162000669565b81146200069457600080fd5b50565b600081519050620006a8816200067d565b92915050565b6000819050919050565b620006c381620006ae565b8114620006cf57600080fd5b50565b600081519050620006e381620006b8565b92915050565b60008060006060848603121562000705576200070462000630565b5b6000620007158682870162000697565b93505060206200072886828701620006d2565b92505060406200073b86828701620006d2565b9150509250925092565b7f50696b6150617920426174636820230000000000000000000000000000000000815250565b600081519050919050565b600081905092915050565b60005b83811015620007a157808201518184015260208101905062000784565b60008484015250505050565b6000620007ba826200076b565b620007c6818562000776565b9350620007d881856020860162000781565b80840191505092915050565b6000620007f18262000745565b600f82019150620008038284620007ad565b915081905092915050565b7f4e487b7100000000000000000000000000000000000000000000000000000000600052604160045260246000fd5b7f4e487b7100000000000000000000000000000000000000000000000000000000600052602260045260246000fd5b600060028204905060018216806200088557607f821691505b6020821081036200089b576200089a6200083d565b5b50919050565b60008190508160005260206000209050919050565b60006020601f8301049050919050565b600082821b905092915050565b600060088302620009057fffffffffffffffffffffffffffffffffffffffffffffffffffffffffffffffff82620008c6565b620009118683620008c6565b95508019841693508086168417925050509392505050565b6000819050919050565b6000620009546200094e6200094884620006ae565b62000929565b620006ae565b9050919050565b6000819050919050565b620009708362000933565b620009886200097f826200095b565b848454620008d3565b825550505050565b600090565b6200099f62000990565b620009ac81848462000965565b505050565b5b81811015620009d457620009c860008262000995565b600181019050620009b2565b5050565b601f82111562000a2357620009ed81620008a1565b620009f884620008b6565b8101602085101562000a08578190505b62000a2062000a1785620008b6565b830182620009b1565b50505b505050565b600082821c905092915050565b600062000a486000198460080262000a28565b1980831691505092915050565b600062000a63838362000a35565b9150826002028217905092915050565b62000a7e826200076b565b67ffffffffffffffff81111562000a9a5762000a996200080e565b5b62000aa682546200086c565b62000ab3828285620009d8565b600060209050601f83116001811462000aeb576000841562000ad6578287015190505b62000ae2858262000a55565b86555062000b52565b601f19841662000afb86620008a1565b60005b8281101562000b255784890151825560018201915060208501945060208101905062000afe565b8683101562000b45578489015162000b41601f89168262000a35565b8355505b6001600288020188555050505b505050505050565b7f4e487b7100000000000000000000000000000000000000000000000000000000600052601260045260246000fd5b62000b948162000655565b82525050565b600060208201905062000bb1600083018462000b89565b92915050565b7f4e487b7100000000000000000000000000000000000000000000000000000000600052601160045260246000fd5b600062000bf382620006ae565b915062000c0083620006ae565b925082820190508082111562000c1b5762000c1a62000bb7565b5b92915050565b62000c2c81620006ae565b82525050565b600060608201905062000c49600083018662000b89565b62000c58602083018562000c21565b62000c67604083018462000c21565b949350505050565b600060208201905062000c86600083018462000c21565b92915050565b610f4d8062000c9c6000396000f3fe608060405234801561001057600080fd5b50600436106100a95760003560e01c80633804eea0116100715780633804eea0146101685780634972134a1461018657806370a08231146101a457806395d89b41146101d4578063a9059cbb146101f2578063dd62ed3e14610222576100a9565b806306fdde03146100ae578063095ea7b3146100cc57806318160ddd146100fc57806323b872dd1461011a578063313ce5671461014a575b600080fd5b6100b6610252565b6040516100c39190610b27565b60405180910390f35b6100e660048036038101906100e19190610be2565b6102e4565b6040516100f39190610c3d565b60405180910390f35b610104610307565b6040516101119190610c67565b60405180910390f35b610134600480360381019061012f9190610c82565b610311565b6040516101419190610c3d565b60405180910390f35b610152610340565b60405161015f9190610cf1565b60405180910390f35b610170610349565b60405161017d9190610d6b565b60405180910390f35b61018e61036f565b60405161019b9190610c67565b60405180910390f35b6101be60048036038101906101b99190610d86565b610375565b6040516101cb9190610c67565b60405180910390f35b6101dc6103bd565b6040516101e99190610b27565b60405180910390f35b61020c60048036038101906102079190610be2565b61044f565b6040516102199190610c3d565b60405180910390f35b61023c60048036038101906102379190610db3565b610472565b6040516102499190610c67565b60405180910390f35b60606003805461026190610e22565b80601f016020809104026020016040519081016040528092919081815260200182805461028d90610e22565b80156102da5780601f106102af576101008083540402835291602001916102da565b820191906000526020600020905b8154815290600101906020018083116102bd57829003601f168201915b5050505050905090565b6000806102ef6104f9565b90506102fc818585610501565b600191505092915050565b6000600254905090565b60008061031c6104f9565b9050610329858285610513565b6103348585856105a7565b60019150509392505050565b60006012905090565b600560009054906101000a900473ffffffffffffffffffffffffffffffffffffffff1681565b60065481565b60008060008373ffffffffffffffffffffffffffffffffffffffff1673ffffffffffffffffffffffffffffffffffffffff168152602001908152602001600020549050919050565b6060600480546103cc90610e22565b80601f01602080910402602001604051908101604052809291908181526020018280546103f890610e22565b80156104455780601f1061041a57610100808354040283529160200191610445565b820191906000526020600020905b81548152906001019060200180831161042857829003601f168201915b5050505050905090565b60008061045a6104f9565b90506104678185856105a7565b600191505092915050565b6000600160008473ffffffffffffffffffffffffffffffffffffffff1673ffffffffffffffffffffffffffffffffffffffff16815260200190815260200160002060008373ffffffffffffffffffffffffffffffffffffffff1673ffffffffffffffffffffffffffffffffffffffff16815260200190815260200160002054905092915050565b600033905090565b61050e838383600161069b565b505050565b600061051f8484610472565b90507fffffffffffffffffffffffffffffffffffffffffffffffffffffffffffffffff81146105a15781811015610591578281836040517ffb8f41b200000000000000000000000000000000000000000000000000000000815260040161058893929190610e62565b60405180910390fd5b6105a08484848403600061069b565b5b50505050565b600073ffffffffffffffffffffffffffffffffffffffff168373ffffffffffffffffffffffffffffffffffffffff16036106195760006040517f96c6fd1e0000000000000000000000000000000000000000000000000000000081526004016106109190610e99565b60405180910390fd5b600073ffffffffffffffffffffffffffffffffffffffff168273ffffffffffffffffffffffffffffffffffffffff160361068b5760006040517fec442f050000000000000000000000000000000000000000000000000000000081526004016106829190610e99565b60405180910390fd5b610696838383610872565b505050565b600073ffffffffffffffffffffffffffffffffffffffff168473ffffffffffffffffffffffffffffffffffffffff160361070d5760006040517fe602df050000000000000000000000000000000000000000000000000000000081526004016107049190610e99565b60405180910390fd5b600073ffffffffffffffffffffffffffffffffffffffff168373ffffffffffffffffffffffffffffffffffffffff160361077f5760006040517f94280d620000000000000000000000000000000000000000000000000000000081526004016107769190610e99565b60405180910390fd5b81600160008673ffffffffffffffffffffffffffffffffffffffff1673ffffffffffffffffffffffffffffffffffffffff16815260200190815260200160002060008573ffffffffffffffffffffffffffffffffffffffff1673ffffffffffffffffffffffffffffffffffffffff16815260200190815260200160002081905550801561086c578273ffffffffffffffffffffffffffffffffffffffff168473ffffffffffffffffffffffffffffffffffffffff167f8c5be1e5ebec7d5bd14f71427d1e84f3dd0314c0f7b2291e5b200ac8c7c3b925846040516108639190610c67565b60405180910390a35b50505050565b600073ffffffffffffffffffffffffffffffffffffffff168373ffffffffffffffffffffffffffffffffffffffff16036108c45780600260008282546108b89190610ee3565b92505081905550610997565b60008060008573ffffffffffffffffffffffffffffffffffffffff1673ffffffffffffffffffffffffffffffffffffffff16815260200190815260200160002054905081811015610950578381836040517fe450d38c00000000000000000000000000000000000000000000000000000000815260040161094793929190610e62565b60405180910390fd5b8181036000808673ffffffffffffffffffffffffffffffffffffffff1673ffffffffffffffffffffffffffffffffffffffff16815260200190815260200160002081905550505b600073ffffffffffffffffffffffffffffffffffffffff168273ffffffffffffffffffffffffffffffffffffffff16036109e05780600260008282540392505081905550610a2d565b806000808473ffffffffffffffffffffffffffffffffffffffff1673ffffffffffffffffffffffffffffffffffffffff168152602001908152602001600020600082825401925050819055505b8173ffffffffffffffffffffffffffffffffffffffff168373ffffffffffffffffffffffffffffffffffffffff167fddf252ad1be2c89b69c2b068fc378daa952ba7f163c4a11628f55a4df523b3ef83604051610a8a9190610c67565b60405180910390a3505050565b600081519050919050565b600082825260208201905092915050565b60005b83811015610ad1578082015181840152602081019050610ab6565b60008484015250505050565b6000601f19601f8301169050919050565b6000610af982610a97565b610b038185610aa2565b9350610b13818560208601610ab3565b610b1c81610add565b840191505092915050565b60006020820190508181036000830152610b418184610aee565b905092915050565b600080fd5b600073ffffffffffffffffffffffffffffffffffffffff82169050919050565b6000610b7982610b4e565b9050919050565b610b8981610b6e565b8114610b9457600080fd5b50565b600081359050610ba681610b80565b92915050565b6000819050919050565b610bbf81610bac565b8114610bca57600080fd5b50565b600081359050610bdc81610bb6565b92915050565b60008060408385031215610bf957610bf8610b49565b5b6000610c0785828601610b97565b9250506020610c1885828601610bcd565b9150509250929050565b60008115159050919050565b610c3781610c22565b82525050565b6000602082019050610c526000830184610c2e565b92915050565b610c6181610bac565b82525050565b6000602082019050610c7c6000830184610c58565b92915050565b600080600060608486031215610c9b57610c9a610b49565b5b6000610ca986828701610b97565b9350506020610cba86828701610b97565b9250506040610ccb86828701610bcd565b9150509250925092565b600060ff82169050919050565b610ceb81610cd5565b82525050565b6000602082019050610d066000830184610ce2565b92915050565b6000819050919050565b6000610d31610d2c610d2784610b4e565b610d0c565b610b4e565b9050919050565b6000610d4382610d16565b9050919050565b6000610d5582610d38565b9050919050565b610d6581610d4a565b82525050565b6000602082019050610d806000830184610d5c565b92915050565b600060208284031215610d9c57610d9b610b49565b5b6000610daa84828501610b97565b91505092915050565b60008060408385031215610dca57610dc9610b49565b5b6000610dd885828601610b97565b9250506020610de985828601610b97565b9150509250929050565b7f4e487b7100000000000000000000000000000000000000000000000000000000600052602260045260246000fd5b60006002820490506001821680610e3a57607f821691505b602082108103610e4d57610e4c610df3565b5b50919050565b610e5c81610b6e565b82525050565b6000606082019050610e776000830186610e53565b610e846020830185610c58565b610e916040830184610c58565b949350505050565b6000602082019050610eae6000830184610e53565b92915050565b7f4e487b7100000000000000000000000000000000000000000000000000000000600052601160045260246000fd5b6000610eee82610bac565b9150610ef983610bac565b9250828201905080821115610f1157610f10610eb4565b5b9291505056fea26469706673582212208bd1ca38ceb8c7b529731c70596a0e5437ab20f96309cc116154f1835af5c0da64736f6c63430008140033",
  "linkReferences": {},
  "deployedLinkReferences": {}
}