{
  "_format": "hh-sol-artifact-1",
  "contractName": "PikaPay",
  "sourceName": "contracts/PikaPay.sol",
  "abi": [
    {
      "inputs": [
        {
          "internalType": "address",
          "name": "_tokenAddress",
          "type": "address"
        }
      ],
      "stateMutability": "nonpayable",
      "type": "constructor"
    },
    {
      "inputs": [
        {
          "internalType": "address",
          "name": "token",
          "type": "address"
        }
      ],
      "name": "SafeERC20FailedOperation",
      "type": "error"
    },
    {
      "anonymous": false,
      "inputs": [
        {
          "indexed": false,
          "internalType": "uint256",
          "name": "batchId",
          "type": "uint256"
        },
        {
          "indexed": true,
          "internalType": "address",
          "name": "beneficiary",
          "type": "address"
        },
        {
          "indexed": false,
          "internalType": "uint256",
          "name": "amount",
          "type": "uint256"
        },
        {
          "indexed": false,
          "internalType": "string",
          "name": "attestation",
          "type": "string"
        },
        {
          "indexed": false,
          "internalType": "string",
          "name": "metadata",
          "type": "string"
        }
      ],
      "name": "AttestedWithdrawal",
      "type": "event"
    },
    {
      "anonymous": false,
      "inputs": [
        {
          "indexed": false,
          "internalType": "uint256",
          "name": "batchId",
          "type": "uint256"
        },
        {
          "indexed": true,
          "internalType": "address",
          "name": "owner",
          "type": "address"
        },
        {
          "indexed": false,
          "internalType": "string",
          "name": "attestationDetails",
          "type": "string"
        },
        {
          "indexed": false,
          "internalType": "uint256",
          "name": "totalAmount",
          "type": "uint256"
        }
      ],
      "name": "BatchCreated",
      "type": "event"
    },
    {
      "anonymous": false,
      "inputs": [
        {
          "indexed": false,
          "internalType": "uint256",
          "name": "batchId",
          "type": "uint256"
        }
      ],
      "name": "BatchFinalized",
      "type": "event"
    },
    {
      "anonymous": false,
      "inputs": [
        {
          "indexed": false,
          "internalType": "uint256",
          "name": "batchId",
          "type": "uint256"
        },
        {
          "indexed": false,
          "internalType": "string",
          "name": "updatedAttestationDetails",
          "type": "string"
        }
      ],
      "name": "BatchUpdated",
      "type": "event"
    },
    {
      "anonymous": false,
      "inputs": [
        {
          "indexed": false,
          "internalType": "uint256",
          "name": "batchId",
          "type": "uint256"
        },
        {
          "indexed": true,
          "internalType": "address",
          "name": "previousOwner",
          "type": "address"
        },
        {
          "indexed": true,
          "internalType": "address",
          "name": "newOwner",
          "type": "address"
        },
        {
          "indexed": false,
          "internalType": "uint256",
          "name": "amount",
          "type": "uint256"
        }
      ],
      "name": "OwnershipTransferred",
      "type": "event"
    },
    {
      "inputs": [
        {
          "internalType": "uint256",
          "name": "",
          "type": "uint256"
        }
      ],
      "name": "batchRegistry",
      "outputs": [
        {
          "internalType": "uint256",
          "name": "batchId",
          "type": "uint256"
        },
        {
          "internalType": "contract PikaFractionalAttestationToken",
          "name": "token",
          "type": "address"
        },
        {
          "internalType": "string",
          "name": "attestationDetails",
          "type": "string"
        },
        {
          "internalType": "uint256",
          "name": "totalSupply",
          "type": "uint256"
        },
        {
          "internalType": "uint256",
          "name": "remainingSupply",
          "type": "uint256"
        },
        {
          "internalType": "bool",
          "name": "isFinalized",
          "type": "bool"
        },
        {
          "internalType": "address",
          "name": "owner",
          "type": "address"
        }
      ],
      "stateMutability": "view",
      "type": "function"
    },
    {
      "inputs": [
        {
          "internalType": "uint256",
          "name": "",
          "type": "uint256"
        },
        {
          "internalType": "address",
          "name": "",
          "type": "address"
        }
      ],
      "name": "beneficiaryBalances",
      "outputs": [
        {
          "internalType": "uint256",
          "name": "",
          "type": "uint256"
        }
      ],
      "stateMutability": "view",
      "type": "function"
    },
    {
      "inputs": [
        {
          "internalType": "string",
          "name": "_attestationDetails",
          "type": "string"
        },
        {
          "internalType": "uint256",
          "name": "_depositAmount",
          "type": "uint256"
        }
      ],
      "name": "createNewBatchWithAttestation",
      "outputs": [],
      "stateMutability": "nonpayable",
      "type": "function"
    },
    {
      "inputs": [
        {
          "internalType": "uint256",
          "name": "_batchId",
          "type": "uint256"
        },
        {
          "internalType": "string",
          "name": "_newAttestationDetails",
          "type": "string"
        }
      ],
      "name": "modifyBatchAttestation",
      "outputs": [],
      "stateMutability": "nonpayable",
      "type": "function"
    },
    {
      "inputs": [],
      "name": "token",
      "outputs": [
        {
          "internalType": "contract ERC20",
          "name": "",
          "type": "address"
        }
      ],
      "stateMutability": "view",
      "type": "function"
    },
    {
      "inputs": [],
      "name": "totalBatches",
      "outputs": [
        {
          "internalType": "uint256",
          "name": "",
          "type": "uint256"
        }
      ],
      "stateMutability": "view",
      "type": "function"
    },
    {
      "inputs": [
        {
          "internalType": "uint256",
          "name": "_batchId",
          "type": "uint256"
        },
        {
          "internalType": "address",
          "name": "_newOwner",
          "type": "address"
        },
        {
          "internalType": "uint256",
          "name": "_transferAmount",
          "type": "uint256"
        }
      ],
      "name": "transferBatchOwnership",
      "outputs": [],
      "stateMutability": "nonpayable",
      "type": "function"
    },
    {
      "inputs": [
        {
          "internalType": "uint256",
          "name": "_batchId",
          "type": "uint256"
        },
        {
          "internalType": "uint256",
          "name": "_withdrawAmount",
          "type": "uint256"
        },
        {
          "internalType": "string",
          "name": "_metadata",
          "type": "string"
        }
      ],
      "name": "withdrawPrivatly",
      "outputs": [],
      "stateMutability": "nonpayable",
      "type": "function"
    },
    {
      "inputs": [
        {
          "internalType": "uint256",
          "name": "_batchId",
          "type": "uint256"
        },
        {
          "internalType": "uint256",
          "name": "_withdrawAmount",
          "type": "uint256"
        },
        {
          "internalType": "string",
          "name": "_metadata",
          "type": "string"
        }
      ],
      "name": "withdrawWithAttestationProof",
      "outputs": [],
      "stateMutability": "nonpayable",
      "type": "function"
    }
  ],
  "bytecode": "0x60806040526000805534801561001457600080fd5b5060405161405c38038061405c833981810160405281019061003691906100e0565b80600360006101000a81548173ffffffffffffffffffffffffffffffffffffffff021916908373ffffffffffffffffffffffffffffffffffffffff1602179055505061010d565b600080fd5b600073ffffffffffffffffffffffffffffffffffffffff82169050919050565b60006100ad82610082565b9050919050565b6100bd816100a2565b81146100c857600080fd5b50565b6000815190506100da816100b4565b92915050565b6000602082840312156100f6576100f561007d565b5b6000610104848285016100cb565b91505092915050565b613f408061011c6000396000f3fe608060405234801561001057600080fd5b50600436106100935760003560e01c8063a913d7b911610066578063a913d7b914610138578063bdecd21b14610154578063f412280714610170578063fc0c546a1461018c578063fd96c7f4146101aa57610093565b80633d2d07e2146100985780634f4ed78f146100c857806350ba8364146100fe57806369ff6abb1461011a575b600080fd5b6100b260048036038101906100ad919061123c565b6101c6565b6040516100bf919061128b565b60405180910390f35b6100e260048036038101906100dd91906112a6565b6101eb565b6040516100f597969594939291906113ec565b60405180910390f35b610118600480360381019061011391906114c7565b610302565b005b610122610639565b60405161012f919061128b565b60405180910390f35b610152600480360381019061014d919061153b565b61063f565b005b61016e6004803603810190610169919061159b565b61097b565b005b61018a600480360381019061018591906115ee565b610cb0565b005b610194610e67565b6040516101a1919061166f565b60405180910390f35b6101c460048036038101906101bf91906114c7565b610e8d565b005b6002602052816000526040600020602052806000526040600020600091509150505481565b60016020528060005260406000206000915090508060000154908060010160009054906101000a900473ffffffffffffffffffffffffffffffffffffffff169080600201805461023a906116b9565b80601f0160208091040260200160405190810160405280929190818152602001828054610266906116b9565b80156102b35780601f10610288576101008083540402835291602001916102b3565b820191906000526020600020905b81548152906001019060200180831161029657829003601f168201915b5050505050908060030154908060040154908060050160009054906101000a900460ff16908060050160019054906101000a900473ffffffffffffffffffffffffffffffffffffffff16905087565b8360008111801561031557506000548111155b610354576040517f08c379a000000000000000000000000000000000000000000000000000000000815260040161034b90611736565b60405180910390fd5b60006001600087815260200190815260200160002090508060050160009054906101000a900460ff16156103bd576040517f08c379a00000000000000000000000000000000000000000000000000000000081526004016103b4906117c8565b60405180910390fd5b846002600088815260200190815260200160002060003373ffffffffffffffffffffffffffffffffffffffff1673ffffffffffffffffffffffffffffffffffffffff168152602001908152602001600020541015610450576040517f08c379a00000000000000000000000000000000000000000000000000000000081526004016104479061185a565b60405180910390fd5b846002600088815260200190815260200160002060003373ffffffffffffffffffffffffffffffffffffffff1673ffffffffffffffffffffffffffffffffffffffff16815260200190815260200160002060008282546104b091906118a9565b92505081905550848160040160008282546104cb91906118a9565b9250508190555061051f3386600360009054906101000a900473ffffffffffffffffffffffffffffffffffffffff1673ffffffffffffffffffffffffffffffffffffffff16610ee69092919063ffffffff16565b8060010160009054906101000a900473ffffffffffffffffffffffffffffffffffffffff1673ffffffffffffffffffffffffffffffffffffffff1663a9059cbb33876040518363ffffffff1660e01b815260040161057e9291906118dd565b6020604051808303816000875af115801561059d573d6000803e3d6000fd5b505050506040513d601f19601f820116820180604052508101906105c19190611932565b503373ffffffffffffffffffffffffffffffffffffffff167f8eb386ea7cbdb4a91109cea5fed53b6b02f667c149086a609ad4347fb0a5d7888787846002018888604051610613959493929190611a34565b60405180910390a260008160040154036106315761063086610f65565b5b505050505050565b60005481565b60008111610682576040517f08c379a000000000000000000000000000000000000000000000000000000000815260040161067990611afb565b60405180910390fd5b60016000808282546106949190611b1b565b925050819055506106ea333083600360009054906101000a900473ffffffffffffffffffffffffffffffffffffffff1673ffffffffffffffffffffffffffffffffffffffff1661106d909392919063ffffffff16565b600030600054836040516106fd90611191565b61070993929190611b70565b604051809103906000f080158015610725573d6000803e3d6000fd5b5090506040518060e0016040528060005481526020018273ffffffffffffffffffffffffffffffffffffffff16815260200185858080601f016020809104026020016040519081016040528093929190818152602001838380828437600081840152601f19601f8201169050808301925050505050505081526020018381526020018381526020016000151581526020013373ffffffffffffffffffffffffffffffffffffffff1681525060016000805481526020019081526020016000206000820151816000015560208201518160010160006101000a81548173ffffffffffffffffffffffffffffffffffffffff021916908373ffffffffffffffffffffffffffffffffffffffff160217905550604082015181600201908161084a9190611d63565b50606082015181600301556080820151816004015560a08201518160050160006101000a81548160ff02191690831515021790555060c08201518160050160016101000a81548173ffffffffffffffffffffffffffffffffffffffff021916908373ffffffffffffffffffffffffffffffffffffffff16021790555090505081600260008054815260200190815260200160002060003373ffffffffffffffffffffffffffffffffffffffff1673ffffffffffffffffffffffffffffffffffffffff168152602001908152602001600020819055503373ffffffffffffffffffffffffffffffffffffffff167f24d4dd2cd73442ce7ba8d012afd0ab2601a6b3c593b368a0a91b1bac5d5d27f260005486868660405161096d9493929190611e35565b60405180910390a250505050565b8260008111801561098e57506000548111155b6109cd576040517f08c379a00000000000000000000000000000000000000000000000000000000081526004016109c490611736565b60405180910390fd5b833373ffffffffffffffffffffffffffffffffffffffff166001600083815260200190815260200160002060050160019054906101000a900473ffffffffffffffffffffffffffffffffffffffff1673ffffffffffffffffffffffffffffffffffffffff1614610a72576040517f08c379a0000000000000000000000000000000000000000000000000000000008152600401610a6990611ec1565b60405180910390fd5b600073ffffffffffffffffffffffffffffffffffffffff168473ffffffffffffffffffffffffffffffffffffffff1603610ae1576040517f08c379a0000000000000000000000000000000000000000000000000000000008152600401610ad890611f2d565b60405180910390fd5b826002600087815260200190815260200160002060003373ffffffffffffffffffffffffffffffffffffffff1673ffffffffffffffffffffffffffffffffffffffff168152602001908152602001600020541015610b74576040517f08c379a0000000000000000000000000000000000000000000000000000000008152600401610b6b90611fbf565b60405180910390fd5b826002600087815260200190815260200160002060003373ffffffffffffffffffffffffffffffffffffffff1673ffffffffffffffffffffffffffffffffffffffff1681526020019081526020016000206000828254610bd491906118a9565b92505081905550826002600087815260200190815260200160002060008673ffffffffffffffffffffffffffffffffffffffff1673ffffffffffffffffffffffffffffffffffffffff1681526020019081526020016000206000828254610c3b9190611b1b565b925050819055508373ffffffffffffffffffffffffffffffffffffffff163373ffffffffffffffffffffffffffffffffffffffff167f06f354ec7b9d2ca4e029f73ccb9119943a48c3295704dd66ca8beda0c7bae33f8786604051610ca1929190611fdf565b60405180910390a35050505050565b82600081118015610cc357506000548111155b610d02576040517f08c379a0000000000000000000000000000000000000000000000000000000008152600401610cf990611736565b60405180910390fd5b833373ffffffffffffffffffffffffffffffffffffffff166001600083815260200190815260200160002060050160019054906101000a900473ffffffffffffffffffffffffffffffffffffffff1673ffffffffffffffffffffffffffffffffffffffff1614610da7576040517f08c379a0000000000000000000000000000000000000000000000000000000008152600401610d9e90611ec1565b60405180910390fd5b60006001600087815260200190815260200160002090508060050160009054906101000a900460ff1615610e10576040517f08c379a0000000000000000000000000000000000000000000000000000000008152600401610e079061207a565b60405180910390fd5b8484826002019182610e239291906120a5565b507fcc1163b9f5b7a48feb09e3106d97fe333e2b9b8d72544e2f9d4470f483e5214e868686604051610e5793929190612175565b60405180910390a1505050505050565b600360009054906101000a900473ffffffffffffffffffffffffffffffffffffffff1681565b83600081118015610ea057506000548111155b610edf576040517f08c379a0000000000000000000000000000000000000000000000000000000008152600401610ed690611736565b60405180910390fd5b5050505050565b610f60838473ffffffffffffffffffffffffffffffffffffffff1663a9059cbb8585604051602401610f199291906118dd565b604051602081830303815290604052915060e01b6020820180517bffffffffffffffffffffffffffffffffffffffffffffffffffffffff83818316178352505050506110ef565b505050565b60006001600083815260200190815260200160002090508060050160009054906101000a900460ff1615610fce576040517f08c379a0000000000000000000000000000000000000000000000000000000008152600401610fc5906121f3565b60405180910390fd5b6000816004015414611015576040517f08c379a000000000000000000000000000000000000000000000000000000000815260040161100c90612285565b60405180910390fd5b60018160050160006101000a81548160ff0219169083151502179055507f5cff112f1cb588779b4e6aae6baf0d738747fcf132f0ff202adcec605f9cabdf82604051611061919061128b565b60405180910390a15050565b6110e9848573ffffffffffffffffffffffffffffffffffffffff166323b872dd8686866040516024016110a2939291906122a5565b604051602081830303815290604052915060e01b6020820180517bffffffffffffffffffffffffffffffffffffffffffffffffffffffff83818316178352505050506110ef565b50505050565b600080602060008451602086016000885af180611112576040513d6000823e3d81fd5b3d92506000519150506000821461112d576001811415611149565b60008473ffffffffffffffffffffffffffffffffffffffff163b145b1561118b57836040517f5274afe700000000000000000000000000000000000000000000000000000000815260040161118291906122dc565b60405180910390fd5b50505050565b611c13806122f883390190565b600080fd5b600080fd5b6000819050919050565b6111bb816111a8565b81146111c657600080fd5b50565b6000813590506111d8816111b2565b92915050565b600073ffffffffffffffffffffffffffffffffffffffff82169050919050565b6000611209826111de565b9050919050565b611219816111fe565b811461122457600080fd5b50565b60008135905061123681611210565b92915050565b600080604083850312156112535761125261119e565b5b6000611261858286016111c9565b925050602061127285828601611227565b9150509250929050565b611285816111a8565b82525050565b60006020820190506112a0600083018461127c565b92915050565b6000602082840312156112bc576112bb61119e565b5b60006112ca848285016111c9565b91505092915050565b6000819050919050565b60006112f86112f36112ee846111de565b6112d3565b6111de565b9050919050565b600061130a826112dd565b9050919050565b600061131c826112ff565b9050919050565b61132c81611311565b82525050565b600081519050919050565b600082825260208201905092915050565b60005b8381101561136c578082015181840152602081019050611351565b60008484015250505050565b6000601f19601f8301169050919050565b600061139482611332565b61139e818561133d565b93506113ae81856020860161134e565b6113b781611378565b840191505092915050565b60008115159050919050565b6113d7816113c2565b82525050565b6113e6816111fe565b82525050565b600060e082019050611401600083018a61127c565b61140e6020830189611323565b81810360408301526114208188611389565b905061142f606083018761127c565b61143c608083018661127c565b61144960a08301856113ce565b61145660c08301846113dd565b98975050505050505050565b600080fd5b600080fd5b600080fd5b60008083601f84011261148757611486611462565b5b8235905067ffffffffffffffff8111156114a4576114a3611467565b5b6020830191508360018202830111156114c0576114bf61146c565b5b9250929050565b600080600080606085870312156114e1576114e061119e565b5b60006114ef878288016111c9565b9450506020611500878288016111c9565b935050604085013567ffffffffffffffff811115611521576115206111a3565b5b61152d87828801611471565b925092505092959194509250565b6000806000604084860312156115545761155361119e565b5b600084013567ffffffffffffffff811115611572576115716111a3565b5b61157e86828701611471565b93509350506020611591868287016111c9565b9150509250925092565b6000806000606084860312156115b4576115b361119e565b5b60006115c2868287016111c9565b93505060206115d386828701611227565b92505060406115e4868287016111c9565b9150509250925092565b6000806000604084860312156116075761160661119e565b5b6000611615868287016111c9565b935050602084013567ffffffffffffffff811115611636576116356111a3565b5b61164286828701611471565b92509250509250925092565b6000611659826112ff565b9050919050565b6116698161164e565b82525050565b60006020820190506116846000830184611660565b92915050565b7f4e487b7100000000000000000000000000000000000000000000000000000000600052602260045260246000fd5b600060028204905060018216806116d157607f821691505b6020821081036116e4576116e361168a565b5b50919050565b7f496e76616c696420626174636820494400000000000000000000000000000000600082015250565b600061172060108361133d565b915061172b826116ea565b602082019050919050565b6000602082019050818103600083015261174f81611713565b9050919050565b7f42617463682068617320616c7265616479206265656e2066696e616c697a656460008201527f2e00000000000000000000000000000000000000000000000000000000000000602082015250565b60006117b260218361133d565b91506117bd82611756565b604082019050919050565b600060208201905081810360008301526117e1816117a5565b9050919050565b7f496e73756666696369656e742062616c616e636520666f72207769746864726160008201527f77616c2e00000000000000000000000000000000000000000000000000000000602082015250565b600061184460248361133d565b915061184f826117e8565b604082019050919050565b6000602082019050818103600083015261187381611837565b9050919050565b7f4e487b7100000000000000000000000000000000000000000000000000000000600052601160045260246000fd5b60006118b4826111a8565b91506118bf836111a8565b92508282039050818111156118d7576118d661187a565b5b92915050565b60006040820190506118f260008301856113dd565b6118ff602083018461127c565b9392505050565b61190f816113c2565b811461191a57600080fd5b50565b60008151905061192c81611906565b92915050565b6000602082840312156119485761194761119e565b5b60006119568482850161191d565b91505092915050565b60008190508160005260206000209050919050565b60008154611981816116b9565b61198b818661133d565b945060018216600081146119a657600181146119bc576119ef565b60ff1983168652811515602002860193506119ef565b6119c58561195f565b60005b838110156119e7578154818901526001820191506020810190506119c8565b808801955050505b50505092915050565b82818337600083830152505050565b6000611a13838561133d565b9350611a208385846119f8565b611a2983611378565b840190509392505050565b6000608082019050611a49600083018861127c565b611a56602083018761127c565b8181036040830152611a688186611974565b90508181036060830152611a7d818486611a07565b90509695505050505050565b7f4465706f73697420616d6f756e74206d7573742062652067726561746572207460008201527f68616e2030000000000000000000000000000000000000000000000000000000602082015250565b6000611ae560258361133d565b9150611af082611a89565b604082019050919050565b60006020820190508181036000830152611b1481611ad8565b9050919050565b6000611b26826111a8565b9150611b31836111a8565b9250828201905080821115611b4957611b4861187a565b5b92915050565b6000611b5a826112ff565b9050919050565b611b6a81611b4f565b82525050565b6000606082019050611b856000830186611b61565b611b92602083018561127c565b611b9f604083018461127c565b949350505050565b7f4e487b7100000000000000000000000000000000000000000000000000000000600052604160045260246000fd5b60006020601f8301049050919050565b600082821b905092915050565b600060088302611c237fffffffffffffffffffffffffffffffffffffffffffffffffffffffffffffffff82611be6565b611c2d8683611be6565b95508019841693508086168417925050509392505050565b6000611c60611c5b611c56846111a8565b6112d3565b6111a8565b9050919050565b6000819050919050565b611c7a83611c45565b611c8e611c8682611c67565b848454611bf3565b825550505050565b600090565b611ca3611c96565b611cae818484611c71565b505050565b5b81811015611cd257611cc7600082611c9b565b600181019050611cb4565b5050565b601f821115611d1757611ce88161195f565b611cf184611bd6565b81016020851015611d00578190505b611d14611d0c85611bd6565b830182611cb3565b50505b505050565b600082821c905092915050565b6000611d3a60001984600802611d1c565b1980831691505092915050565b6000611d538383611d29565b9150826002028217905092915050565b611d6c82611332565b67ffffffffffffffff811115611d8557611d84611ba7565b5b611d8f82546116b9565b611d9a828285611cd6565b600060209050601f831160018114611dcd5760008415611dbb578287015190505b611dc58582611d47565b865550611e2d565b601f198416611ddb8661195f565b60005b82811015611e0357848901518255600182019150602085019450602081019050611dde565b86831015611e205784890151611e1c601f891682611d29565b8355505b6001600288020188555050505b505050505050565b6000606082019050611e4a600083018761127c565b8181036020830152611e5d818587611a07565b9050611e6c604083018461127c565b95945050505050565b7f43616c6c6572206973206e6f7420746865206261746368206f776e6572000000600082015250565b6000611eab601d8361133d565b9150611eb682611e75565b602082019050919050565b60006020820190508181036000830152611eda81611e9e565b9050919050565b7f496e76616c6964206e6577206f776e6572206164647265737300000000000000600082015250565b6000611f1760198361133d565b9150611f2282611ee1565b602082019050919050565b60006020820190508181036000830152611f4681611f0a565b9050919050565b7f496e73756666696369656e742062616c616e636520666f72207472616e73666560008201527f722e000000000000000000000000000000000000000000000000000000000000602082015250565b6000611fa960228361133d565b9150611fb482611f4d565b604082019050919050565b60006020820190508181036000830152611fd881611f9c565b9050919050565b6000604082019050611ff4600083018561127c565b612001602083018461127c565b9392505050565b7f43616e6e6f7420757064617465206174746573746174696f6e20666f7220612060008201527f66696e616c697a65642062617463682e00000000000000000000000000000000602082015250565b600061206460308361133d565b915061206f82612008565b604082019050919050565b6000602082019050818103600083015261209381612057565b9050919050565b600082905092915050565b6120af838361209a565b67ffffffffffffffff8111156120c8576120c7611ba7565b5b6120d282546116b9565b6120dd828285611cd6565b6000601f83116001811461210c57600084156120fa578287013590505b6121048582611d47565b86555061216c565b601f19841661211a8661195f565b60005b828110156121425784890135825560018201915060208501945060208101905061211d565b8683101561215f578489013561215b601f891682611d29565b8355505b6001600288020188555050505b50505050505050565b600060408201905061218a600083018661127c565b818103602083015261219d818486611a07565b9050949350505050565b7f426174636820697320616c72656164792066696e616c697a65642e0000000000600082015250565b60006121dd601b8361133d565b91506121e8826121a7565b602082019050919050565b6000602082019050818103600083015261220c816121d0565b9050919050565b7f546865726520617265207374696c6c20756e77697468647261776e20746f6b6560008201527f6e732e0000000000000000000000000000000000000000000000000000000000602082015250565b600061226f60238361133d565b915061227a82612213565b604082019050919050565b6000602082019050818103600083015261229e81612262565b9050919050565b60006060820190506122ba60008301866113dd565b6122c760208301856113dd565b6122d4604083018461127c565b949350505050565b60006020820190506122f160008301846113dd565b9291505056fe608060405234801561001057600080fd5b50604051611c13380380611c13833981810160405281019061003291906106da565b6100418261015b60201b60201c565b60405160200161005191906107c4565b6040516020818303038152906040526040518060400160405280600481526020017f504641540000000000000000000000000000000000000000000000000000000081525081600390816100a59190610a25565b5080600490816100b59190610a25565b505050600081116100fb576040517f08c379a00000000000000000000000000000000000000000000000000000000081526004016100f290610b7a565b60405180910390fd5b82600560006101000a81548173ffffffffffffffffffffffffffffffffffffffff021916908373ffffffffffffffffffffffffffffffffffffffff16021790555081600681905550610153338261022f60201b60201c565b505050610cb7565b606060006001610170846102b760201b60201c565b01905060008167ffffffffffffffff81111561018f5761018e6107ea565b5b6040519080825280601f01601f1916602001820160405280156101c15781602001600182028036833780820191505090505b509050600082602001820190505b600115610224578080600190039150507f3031323334353637383961626364656600000000000000000000000000000000600a86061a8153600a858161021857610217610b9a565b5b049450600085036101cf575b819350505050919050565b600073ffffffffffffffffffffffffffffffffffffffff168273ffffffffffffffffffffffffffffffffffffffff16036102a15760006040517fec442f050000000000000000000000000000000000000000000000000000000081526004016102989190610bd8565b60405180910390fd5b6102b36000838361040a60201b60201c565b5050565b600080600090507a184f03e93ff9f4daa797ed6e38ed64bf6a1f0100000000000000008310610315577a184f03e93ff9f4daa797ed6e38ed64bf6a1f010000000000000000838161030b5761030a610b9a565b5b0492506040810190505b6d04ee2d6d415b85acef81000000008310610352576d04ee2d6d415b85acef8100000000838161034857610347610b9a565b5b0492506020810190505b662386f26fc10000831061038157662386f26fc10000838161037757610376610b9a565b5b0492506010810190505b6305f5e10083106103aa576305f5e10083816103a05761039f610b9a565b5b0492506008810190505b61271083106103cf5761271083816103c5576103c4610b9a565b5b0492506004810190505b606483106103f257606483816103e8576103e7610b9a565b5b0492506002810190505b600a8310610401576001810190505b80915050919050565b600073ffffffffffffffffffffffffffffffffffffffff168373ffffffffffffffffffffffffffffffffffffffff160361045c5780600260008282546104509190610c22565b9250508190555061052f565b60008060008573ffffffffffffffffffffffffffffffffffffffff1673ffffffffffffffffffffffffffffffffffffffff168152602001908152602001600020549050818110156104e8578381836040517fe450d38c0000000000000000000000000000000000000000000000000000000081526004016104df93929190610c65565b60405180910390fd5b8181036000808673ffffffffffffffffffffffffffffffffffffffff1673ffffffffffffffffffffffffffffffffffffffff16815260200190815260200160002081905550505b600073ffffffffffffffffffffffffffffffffffffffff168273ffffffffffffffffffffffffffffffffffffffff160361057857806002600082825403925050819055506105c5565b806000808473ffffffffffffffffffffffffffffffffffffffff1673ffffffffffffffffffffffffffffffffffffffff168152602001908152602001600020600082825401925050819055505b8173ffffffffffffffffffffffffffffffffffffffff168373ffffffffffffffffffffffffffffffffffffffff167fddf252ad1be2c89b69c2b068fc378daa952ba7f163c4a11628f55a4df523b3ef836040516106229190610c9c565b60405180910390a3505050565b600080fd5b600073ffffffffffffffffffffffffffffffffffffffff82169050919050565b600061065f82610634565b9050919050565b600061067182610654565b9050919050565b61068181610666565b811461068c57600080fd5b50565b60008151905061069e81610678565b92915050565b6000819050919050565b6106b7816106a4565b81146106c257600080fd5b50565b6000815190506106d4816106ae565b92915050565b6000806000606084860312156106f3576106f261062f565b5b60006107018682870161068f565b9350506020610712868287016106c5565b9250506040610723868287016106c5565b9150509250925092565b7f50696b61506179204672616374696f6e616c2042617463682023000000000000815250565b600081519050919050565b600081905092915050565b60005b8381101561078757808201518184015260208101905061076c565b60008484015250505050565b600061079e82610753565b6107a8818561075e565b93506107b8818560208601610769565b80840191505092915050565b60006107cf8261072d565b601a820191506107df8284610793565b915081905092915050565b7f4e487b7100000000000000000000000000000000000000000000000000000000600052604160045260246000fd5b7f4e487b7100000000000000000000000000000000000000000000000000000000600052602260045260246000fd5b6000600282049050600182168061086057607f821691505b60208210810361087357610872610819565b5b50919050565b60008190508160005260206000209050919050565b60006020601f8301049050919050565b600082821b905092915050565b6000600883026108db7fffffffffffffffffffffffffffffffffffffffffffffffffffffffffffffffff8261089e565b6108e5868361089e565b95508019841693508086168417925050509392505050565b6000819050919050565b600061092261091d610918846106a4565b6108fd565b6106a4565b9050919050565b6000819050919050565b61093c83610907565b61095061094882610929565b8484546108ab565b825550505050565b600090565b610965610958565b610970818484610933565b505050565b5b818110156109945761098960008261095d565b600181019050610976565b5050565b601f8211156109d9576109aa81610879565b6109b38461088e565b810160208510156109c2578190505b6109d66109ce8561088e565b830182610975565b50505b505050565b600082821c905092915050565b60006109fc600019846008026109de565b1980831691505092915050565b6000610a1583836109eb565b9150826002028217905092915050565b610a2e82610753565b67ffffffffffffffff811115610a4757610a466107ea565b5b610a518254610848565b610a5c828285610998565b600060209050601f831160018114610a8f5760008415610a7d578287015190505b610a878582610a09565b865550610aef565b601f198416610a9d86610879565b60005b82811015610ac557848901518255600182019150602085019450602081019050610aa0565b86831015610ae25784890151610ade601f8916826109eb565b8355505b6001600288020188555050505b505050505050565b600082825260208201905092915050565b7f496e697469616c20737570706c79206d7573742062652067726561746572207460008201527f68616e2030000000000000000000000000000000000000000000000000000000602082015250565b6000610b64602583610af7565b9150610b6f82610b08565b604082019050919050565b60006020820190508181036000830152610b9381610b57565b9050919050565b7f4e487b7100000000000000000000000000000000000000000000000000000000600052601260045260246000fd5b610bd281610654565b82525050565b6000602082019050610bed6000830184610bc9565b92915050565b7f4e487b7100000000000000000000000000000000000000000000000000000000600052601160045260246000fd5b6000610c2d826106a4565b9150610c38836106a4565b9250828201905080821115610c5057610c4f610bf3565b5b92915050565b610c5f816106a4565b82525050565b6000606082019050610c7a6000830186610bc9565b610c876020830185610c56565b610c946040830184610c56565b949350505050565b6000602082019050610cb16000830184610c56565b92915050565b610f4d80610cc66000396000f3fe608060405234801561001057600080fd5b50600436106100a95760003560e01c80633804eea0116100715780633804eea0146101685780634972134a1461018657806370a08231146101a457806395d89b41146101d4578063a9059cbb146101f2578063dd62ed3e14610222576100a9565b806306fdde03146100ae578063095ea7b3146100cc57806318160ddd146100fc57806323b872dd1461011a578063313ce5671461014a575b600080fd5b6100b6610252565b6040516100c39190610b27565b60405180910390f35b6100e660048036038101906100e19190610be2565b6102e4565b6040516100f39190610c3d565b60405180910390f35b610104610307565b6040516101119190610c67565b60405180910390f35b610134600480360381019061012f9190610c82565b610311565b6040516101419190610c3d565b60405180910390f35b610152610340565b60405161015f9190610cf1565b60405180910390f35b610170610349565b60405161017d9190610d6b565b60405180910390f35b61018e61036f565b60405161019b9190610c67565b60405180910390f35b6101be60048036038101906101b99190610d86565b610375565b6040516101cb9190610c67565b60405180910390f35b6101dc6103bd565b6040516101e99190610b27565b60405180910390f35b61020c60048036038101906102079190610be2565b61044f565b6040516102199190610c3d565b60405180910390f35b61023c60048036038101906102379190610db3565b610472565b6040516102499190610c67565b60405180910390f35b60606003805461026190610e22565b80601f016020809104026020016040519081016040528092919081815260200182805461028d90610e22565b80156102da5780601f106102af576101008083540402835291602001916102da565b820191906000526020600020905b8154815290600101906020018083116102bd57829003601f168201915b5050505050905090565b6000806102ef6104f9565b90506102fc818585610501565b600191505092915050565b6000600254905090565b60008061031c6104f9565b9050610329858285610513565b6103348585856105a7565b60019150509392505050565b60006012905090565b600560009054906101000a900473ffffffffffffffffffffffffffffffffffffffff1681565b60065481565b60008060008373ffffffffffffffffffffffffffffffffffffffff1673ffffffffffffffffffffffffffffffffffffffff168152602001908152602001600020549050919050565b6060600480546103cc90610e22565b80601f01602080910402602001604051908101604052809291908181526020018280546103f890610e22565b80156104455780601f1061041a57610100808354040283529160200191610445565b820191906000526020600020905b81548152906001019060200180831161042857829003601f168201915b5050505050905090565b60008061045a6104f9565b90506104678185856105a7565b600191505092915050565b6000600160008473ffffffffffffffffffffffffffffffffffffffff1673ffffffffffffffffffffffffffffffffffffffff16815260200190815260200160002060008373ffffffffffffffffffffffffffffffffffffffff1673ffffffffffffffffffffffffffffffffffffffff16815260200190815260200160002054905092915050565b600033905090565b61050e838383600161069b565b505050565b600061051f8484610472565b90507fffffffffffffffffffffffffffffffffffffffffffffffffffffffffffffffff81146105a15781811015610591578281836040517ffb8f41b200000000000000000000000000000000000000000000000000000000815260040161058893929190610e62565b60405180910390fd5b6105a08484848403600061069b565b5b50505050565b600073ffffffffffffffffffffffffffffffffffffffff168373ffffffffffffffffffffffffffffffffffffffff16036106195760006040517f96c6fd1e0000000000000000000000000000000000000000000000000000000081526004016106109190610e99565b60405180910390fd5b600073ffffffffffffffffffffffffffffffffffffffff168273ffffffffffffffffffffffffffffffffffffffff160361068b5760006040517fec442f050000000000000000000000000000000000000000000000000000000081526004016106829190610e99565b60405180910390fd5b610696838383610872565b505050565b600073ffffffffffffffffffffffffffffffffffffffff168473ffffffffffffffffffffffffffffffffffffffff160361070d5760006040517fe602df050000000000000000000000000000000000000000000000000000000081526004016107049190610e99565b60405180910390fd5b600073ffffffffffffffffffffffffffffffffffffffff168373ffffffffffffffffffffffffffffffffffffffff160361077f5760006040517f94280d620000000000000000000000000000000000000000000000000000000081526004016107769190610e99565b60405180910390fd5b81600160008673ffffffffffffffffffffffffffffffffffffffff1673ffffffffffffffffffffffffffffffffffffffff16815260200190815260200160002060008573ffffffffffffffffffffffffffffffffffffffff1673ffffffffffffffffffffffffffffffffffffffff16815260200190815260200160002081905550801561086c578273ffffffffffffffffffffffffffffffffffffffff168473ffffffffffffffffffffffffffffffffffffffff167f8c5be1e5ebec7d5bd14f71427d1e84f3dd0314c0f7b2291e5b200ac8c7c3b925846040516108639190610c67565b60405180910390a35b50505050565b600073ffffffffffffffffffffffffffffffffffffffff168373ffffffffffffffffffffffffffffffffffffffff16036108c45780600260008282546108b89190610ee3565b92505081905550610997565b60008060008573ffffffffffffffffffffffffffffffffffffffff1673ffffffffffffffffffffffffffffffffffffffff16815260200190815260200160002054905081811015610950578381836040517fe450d38c00000000000000000000000000000000000000000000000000000000815260040161094793929190610e62565b60405180910390fd5b8181036000808673ffffffffffffffffffffffffffffffffffffffff1673ffffffffffffffffffffffffffffffffffffffff16815260200190815260200160002081905550505b600073ffffffffffffffffffffffffffffffffffffffff168273ffffffffffffffffffffffffffffffffffffffff16036109e05780600260008282540392505081905550610a2d565b806000808473ffffffffffffffffffffffffffffffffffffffff1673ffffffffffffffffffffffffffffffffffffffff168152602001908152602001600020600082825401925050819055505b8173ffffffffffffffffffffffffffffffffffffffff168373ffffffffffffffffffffffffffffffffffffffff167fddf252ad1be2c89b69c2b068fc378daa952ba7f163c4a11628f55a4df523b3ef83604051610a8a9190610c67565b60405180910390a3505050565b600081519050919050565b600082825260208201905092915050565b60005b83811015610ad1578082015181840152602081019050610ab6565b60008484015250505050565b6000601f19601f8301169050919050565b6000610af982610a97565b610b038185610aa2565b9350610b13818560208601610ab3565b610b1c81610add565b840191505092915050565b60006020820190508181036000830152610b418184610aee565b905092915050565b600080fd5b600073ffffffffffffffffffffffffffffffffffffffff82169050919050565b6000610b7982610b4e565b9050919050565b610b8981610b6e565b8114610b9457600080fd5b50565b600081359050610ba681610b80565b92915050565b6000819050919050565b610bbf81610bac565b8114610bca57600080fd5b50565b600081359050610bdc81610bb6565b92915050565b60008060408385031215610bf957610bf8610b49565b5b6000610c0785828601610b97565b9250506020610c1885828601610bcd565b9150509250929050565b60008115159050919050565b610c3781610c22565b82525050565b6000602082019050610c526000830184610c2e565b92915050565b610c6181610bac565b82525050565b6000602082019050610c7c6000830184610c58565b92915050565b600080600060608486031215610c9b57610c9a610b49565b5b6000610ca986828701610b97565b9350506020610cba86828701610b97565b9250506040610ccb86828701610bcd565b9150509250925092565b600060ff82169050919050565b610ceb81610cd5565b82525050565b6000602082019050610d066000830184610ce2565b92915050565b6000819050919050565b6000610d31610d2c610d2784610b4e565b610d0c565b610b4e565b9050919050565b6000610d4382610d16565b9050919050565b6000610d5582610d38565b9050919050565b610d6581610d4a565b82525050565b6000602082019050610d806000830184610d5c565b92915050565b600060208284031215610d9c57610d9b610b49565b5b6000610daa84828501610b97565b91505092915050565b60008060408385031215610dca57610dc9610b49565b5b6000610dd885828601610b97565b9250506020610de985828601610b97565b9150509250929050565b7f4e487b7100000000000000000000000000000000000000000000000000000000600052602260045260246000fd5b60006002820490506001821680610e3a57607f821691505b602082108103610e4d57610e4c610df3565b5b50919050565b610e5c81610b6e565b82525050565b6000606082019050610e776000830186610e53565b610e846020830185610c58565b610e916040830184610c58565b949350505050565b6000602082019050610eae6000830184610e53565b92915050565b7f4e487b7100000000000000000000000000000000000000000000000000000000600052601160045260246000fd5b6000610eee82610bac565b9150610ef983610bac565b9250828201905080821115610f1157610f10610eb4565b5b9291505056fea2646970667358221220a2f5d273759e3b72aa70be5eac958556a803b300386142b07af47bfe594a8f1d64736f6c634300081b0033a2646970667358221220442f91d8ccce65197a68c42d746df407ae179db55251df4d9326e4db140e0d7664736f6c634300081b0033",
  "linkReferences": {},
  "deployedLinkReferences": {}
}