{
  "_format": "hh-sol-artifact-1",
  "contractName": "PikaPay",
  "sourceName": "contracts/PikaPay.sol",
  "abi": [
    {
      "inputs": [],
      "stateMutability": "nonpayable",
      "type": "constructor"
    },
    {
      "anonymous": false,
      "inputs": [
        {
          "indexed": false,
          "internalType": "uint256",
          "name": "batchId",
          "type": "uint256"
        },
        {
          "indexed": false,
          "internalType": "address",
          "name": "beneficiary",
          "type": "address"
        },
        {
          "indexed": false,
          "internalType": "uint256",
          "name": "amount",
          "type": "uint256"
        },
        {
          "indexed": false,
          "internalType": "string",
          "name": "attestation",
          "type": "string"
        },
        {
          "indexed": false,
          "internalType": "string",
          "name": "metadata",
          "type": "string"
        }
      ],
      "name": "AttestedWithdrawal",
      "type": "event"
    },
    {
      "anonymous": false,
      "inputs": [
        {
          "indexed": false,
          "internalType": "uint256",
          "name": "batchId",
          "type": "uint256"
        },
        {
          "indexed": false,
          "internalType": "string",
          "name": "attestationDetails",
          "type": "string"
        },
        {
          "indexed": false,
          "internalType": "uint256",
          "name": "totalAmount",
          "type": "uint256"
        }
      ],
      "name": "BatchCreated",
      "type": "event"
    },
    {
      "anonymous": false,
      "inputs": [
        {
          "indexed": false,
          "internalType": "uint256",
          "name": "batchId",
          "type": "uint256"
        }
      ],
      "name": "BatchFinalized",
      "type": "event"
    },
    {
      "anonymous": false,
      "inputs": [
        {
          "indexed": false,
          "internalType": "uint256",
          "name": "batchId",
          "type": "uint256"
        },
        {
          "indexed": false,
          "internalType": "string",
          "name": "updatedAttestationDetails",
          "type": "string"
        }
      ],
      "name": "BatchUpdated",
      "type": "event"
    },
    {
      "anonymous": false,
      "inputs": [
        {
          "indexed": false,
          "internalType": "uint256",
          "name": "batchId",
          "type": "uint256"
        },
        {
          "indexed": false,
          "internalType": "address",
          "name": "beneficiary",
          "type": "address"
        },
        {
          "indexed": false,
          "internalType": "uint256",
          "name": "amount",
          "type": "uint256"
        },
        {
          "indexed": false,
          "internalType": "string",
          "name": "metadata",
          "type": "string"
        }
      ],
      "name": "PrivateWithdrawal",
      "type": "event"
    },
    {
      "inputs": [],
      "name": "USDT",
      "outputs": [
        {
          "internalType": "contract ERC20",
          "name": "",
          "type": "address"
        }
      ],
      "stateMutability": "view",
      "type": "function"
    },
    {
      "inputs": [
        {
          "internalType": "uint256",
          "name": "",
          "type": "uint256"
        }
      ],
      "name": "batchRegistry",
      "outputs": [
        {
          "internalType": "uint256",
          "name": "batchId",
          "type": "uint256"
        },
        {
          "internalType": "contract PikaFractionalAttestationToken",
          "name": "token",
          "type": "address"
        },
        {
          "internalType": "string",
          "name": "attestationDetails",
          "type": "string"
        },
        {
          "internalType": "uint256",
          "name": "totalSupply",
          "type": "uint256"
        },
        {
          "internalType": "uint256",
          "name": "remainingSupply",
          "type": "uint256"
        },
        {
          "internalType": "bool",
          "name": "isFinalized",
          "type": "bool"
        }
      ],
      "stateMutability": "view",
      "type": "function"
    },
    {
      "inputs": [
        {
          "internalType": "uint256",
          "name": "",
          "type": "uint256"
        },
        {
          "internalType": "address",
          "name": "",
          "type": "address"
        }
      ],
      "name": "beneficiaryBalances",
      "outputs": [
        {
          "internalType": "uint256",
          "name": "",
          "type": "uint256"
        }
      ],
      "stateMutability": "view",
      "type": "function"
    },
    {
      "inputs": [
        {
          "internalType": "string",
          "name": "_attestationDetails",
          "type": "string"
        },
        {
          "internalType": "uint256",
          "name": "_depositAmount",
          "type": "uint256"
        }
      ],
      "name": "createNewBatchWithAttestation",
      "outputs": [],
      "stateMutability": "nonpayable",
      "type": "function"
    },
    {
      "inputs": [
        {
          "internalType": "uint256",
          "name": "_batchId",
          "type": "uint256"
        },
        {
          "internalType": "address",
          "name": "_beneficiary",
          "type": "address"
        }
      ],
      "name": "getBeneficiaryBalance",
      "outputs": [
        {
          "internalType": "uint256",
          "name": "",
          "type": "uint256"
        }
      ],
      "stateMutability": "view",
      "type": "function"
    },
    {
      "inputs": [
        {
          "internalType": "uint256",
          "name": "_batchId",
          "type": "uint256"
        },
        {
          "internalType": "string",
          "name": "_newAttestationDetails",
          "type": "string"
        }
      ],
      "name": "modifyBatchAttestation",
      "outputs": [],
      "stateMutability": "nonpayable",
      "type": "function"
    },
    {
      "inputs": [],
      "name": "totalBatches",
      "outputs": [
        {
          "internalType": "uint256",
          "name": "",
          "type": "uint256"
        }
      ],
      "stateMutability": "view",
      "type": "function"
    },
    {
      "inputs": [
        {
          "internalType": "uint256",
          "name": "_batchId",
          "type": "uint256"
        },
        {
          "internalType": "address",
          "name": "_newOwner",
          "type": "address"
        },
        {
          "internalType": "uint256",
          "name": "_transferAmount",
          "type": "uint256"
        }
      ],
      "name": "transferBatchOwnership",
      "outputs": [],
      "stateMutability": "nonpayable",
      "type": "function"
    },
    {
      "inputs": [
        {
          "internalType": "uint256",
          "name": "_batchId",
          "type": "uint256"
        },
        {
          "internalType": "uint256",
          "name": "_partialAmount",
          "type": "uint256"
        },
        {
          "internalType": "string",
          "name": "_metadata",
          "type": "string"
        }
      ],
      "name": "withdrawPartialAmount",
      "outputs": [],
      "stateMutability": "nonpayable",
      "type": "function"
    },
    {
      "inputs": [
        {
          "internalType": "uint256",
          "name": "_batchId",
          "type": "uint256"
        },
        {
          "internalType": "uint256",
          "name": "_withdrawAmount",
          "type": "uint256"
        },
        {
          "internalType": "string",
          "name": "_metadata",
          "type": "string"
        }
      ],
      "name": "withdrawWithAttestationProof",
      "outputs": [],
      "stateMutability": "nonpayable",
      "type": "function"
    },
    {
      "inputs": [
        {
          "internalType": "uint256",
          "name": "_batchId",
          "type": "uint256"
        },
        {
          "internalType": "uint256",
          "name": "_withdrawAmount",
          "type": "uint256"
        },
        {
          "internalType": "string",
          "name": "_metadata",
          "type": "string"
        }
      ],
      "name": "withdrawWithoutAttestation",
      "outputs": [],
      "stateMutability": "nonpayable",
      "type": "function"
    }
  ],
  "bytecode": "0x608060405260008055348015601357600080fd5b50613e38806100236000396000f3fe608060405234801561001057600080fd5b50600436106100a95760003560e01c806382afd8a21161007157806382afd8a214610169578063a913d7b914610199578063bdecd21b146101b5578063c54e44eb146101d1578063c69ac7d3146101ef578063f41228071461020b576100a9565b80633d2d07e2146100ae5780634f4ed78f146100de57806350ba83641461011357806369ff6abb1461012f57806377eafbf71461014d575b600080fd5b6100c860048036038101906100c391906112e8565b610227565b6040516100d59190611337565b60405180910390f35b6100f860048036038101906100f39190611352565b61024c565b60405161010a96959493929190611489565b60405180910390f35b61012d60048036038101906101289190611556565b61033d565b005b610137610694565b6040516101449190611337565b60405180910390f35b61016760048036038101906101629190611556565b61069a565b005b610183600480360381019061017e91906112e8565b610925565b6040516101909190611337565b60405180910390f35b6101b360048036038101906101ae91906115ca565b610980565b005b6101cf60048036038101906101ca919061162a565b610c45565b005b6101d9610dab565b6040516101e6919061169e565b60405180910390f35b61020960048036038101906102049190611556565b610dc3565b005b610225600480360381019061022091906116b9565b61104e565b005b6002602052816000526040600020602052806000526040600020600091509150505481565b60016020528060005260406000206000915090508060000154908060010160009054906101000a900473ffffffffffffffffffffffffffffffffffffffff169080600201805461029b90611748565b80601f01602080910402602001604051908101604052809291908181526020018280546102c790611748565b80156103145780601f106102e957610100808354040283529160200191610314565b820191906000526020600020905b8154815290600101906020018083116102f757829003601f168201915b5050505050908060030154908060040154908060050160009054906101000a900460ff16905086565b6001600085815260200190815260200160002060050160009054906101000a900460ff16156103a1576040517f08c379a0000000000000000000000000000000000000000000000000000000008152600401610398906117eb565b60405180910390fd5b826002600086815260200190815260200160002060003373ffffffffffffffffffffffffffffffffffffffff1673ffffffffffffffffffffffffffffffffffffffff168152602001908152602001600020541015610434576040517f08c379a000000000000000000000000000000000000000000000000000000000815260040161042b9061187d565b60405180910390fd5b826002600086815260200190815260200160002060003373ffffffffffffffffffffffffffffffffffffffff1673ffffffffffffffffffffffffffffffffffffffff168152602001908152602001600020600082825461049491906118cc565b92505081905550826001600086815260200190815260200160002060040160008282546104c191906118cc565b9250508190555073683a59a90e14216b70057d95c243b118819f400073ffffffffffffffffffffffffffffffffffffffff1663a9059cbb33856040518363ffffffff1660e01b815260040161051792919061190f565b6020604051808303816000875af1158015610536573d6000803e3d6000fd5b505050506040513d601f19601f8201168201806040525081019061055a9190611964565b506001600085815260200190815260200160002060010160009054906101000a900473ffffffffffffffffffffffffffffffffffffffff1673ffffffffffffffffffffffffffffffffffffffff1663a9059cbb33856040518363ffffffff1660e01b81526004016105cc92919061190f565b6020604051808303816000875af11580156105eb573d6000803e3d6000fd5b505050506040513d601f19601f8201168201806040525081019061060f9190611964565b507f8eb386ea7cbdb4a91109cea5fed53b6b02f667c149086a609ad4347fb0a5d78884338560016000898152602001908152602001600020600201868660405161065e96959493929190611a66565b60405180910390a1600060016000868152602001908152602001600020600401540361068e5761068d84611118565b5b50505050565b60005481565b6001600085815260200190815260200160002060050160009054906101000a900460ff16156106fe576040517f08c379a00000000000000000000000000000000000000000000000000000000081526004016106f590611b15565b60405180910390fd5b826002600086815260200190815260200160002060003373ffffffffffffffffffffffffffffffffffffffff1673ffffffffffffffffffffffffffffffffffffffff168152602001908152602001600020541015610791576040517f08c379a000000000000000000000000000000000000000000000000000000000815260040161078890611ba7565b60405180910390fd5b826002600086815260200190815260200160002060003373ffffffffffffffffffffffffffffffffffffffff1673ffffffffffffffffffffffffffffffffffffffff16815260200190815260200160002060008282546107f191906118cc565b925050819055508260016000868152602001908152602001600020600401600082825461081e91906118cc565b9250508190555073683a59a90e14216b70057d95c243b118819f400073ffffffffffffffffffffffffffffffffffffffff1663a9059cbb33856040518363ffffffff1660e01b815260040161087492919061190f565b6020604051808303816000875af1158015610893573d6000803e3d6000fd5b505050506040513d601f19601f820116820180604052508101906108b79190611964565b507f0b27b8aed46d863aa21f1c0dd0ca6804e332ce068329761de4584f4f59740c6184338585856040516108ef959493929190611bc7565b60405180910390a1600060016000868152602001908152602001600020600401540361091f5761091e84611118565b5b50505050565b60006002600084815260200190815260200160002060008373ffffffffffffffffffffffffffffffffffffffff1673ffffffffffffffffffffffffffffffffffffffff16815260200190815260200160002054905092915050565b60016000808282546109929190611c15565b9250508190555073683a59a90e14216b70057d95c243b118819f400073ffffffffffffffffffffffffffffffffffffffff166323b872dd3330846040518463ffffffff1660e01b81526004016109ea93929190611c49565b6020604051808303816000875af1158015610a09573d6000803e3d6000fd5b505050506040513d601f19601f82011682018060405250810190610a2d9190611964565b5060003060005483604051610a419061123d565b610a4d93929190611ca1565b604051809103906000f080158015610a69573d6000803e3d6000fd5b5090506040518060c0016040528060005481526020018273ffffffffffffffffffffffffffffffffffffffff16815260200185858080601f016020809104026020016040519081016040528093929190818152602001838380828437600081840152601f19601f8201169050808301925050505050505081526020018381526020018381526020016000151581525060016000805481526020019081526020016000206000820151816000015560208201518160010160006101000a81548173ffffffffffffffffffffffffffffffffffffffff021916908373ffffffffffffffffffffffffffffffffffffffff1602179055506040820151816002019081610b729190611e94565b50606082015181600301556080820151816004015560a08201518160050160006101000a81548160ff02191690831515021790555090505081600260008054815260200190815260200160002060003373ffffffffffffffffffffffffffffffffffffffff1673ffffffffffffffffffffffffffffffffffffffff168152602001908152602001600020819055507f58c168780de5fc719a1e7a85c7eca394e664c0e74b7c9ebc621f0b093112d04b600054858585604051610c379493929190611f66565b60405180910390a150505050565b806002600085815260200190815260200160002060003373ffffffffffffffffffffffffffffffffffffffff1673ffffffffffffffffffffffffffffffffffffffff168152602001908152602001600020541015610cd8576040517f08c379a0000000000000000000000000000000000000000000000000000000008152600401610ccf90612018565b60405180910390fd5b806002600085815260200190815260200160002060003373ffffffffffffffffffffffffffffffffffffffff1673ffffffffffffffffffffffffffffffffffffffff1681526020019081526020016000206000828254610d3891906118cc565b92505081905550806002600085815260200190815260200160002060008473ffffffffffffffffffffffffffffffffffffffff1673ffffffffffffffffffffffffffffffffffffffff1681526020019081526020016000206000828254610d9f9190611c15565b92505081905550505050565b73683a59a90e14216b70057d95c243b118819f400081565b6001600085815260200190815260200160002060050160009054906101000a900460ff1615610e27576040517f08c379a0000000000000000000000000000000000000000000000000000000008152600401610e1e906117eb565b60405180910390fd5b826002600086815260200190815260200160002060003373ffffffffffffffffffffffffffffffffffffffff1673ffffffffffffffffffffffffffffffffffffffff168152602001908152602001600020541015610eba576040517f08c379a0000000000000000000000000000000000000000000000000000000008152600401610eb19061187d565b60405180910390fd5b826002600086815260200190815260200160002060003373ffffffffffffffffffffffffffffffffffffffff1673ffffffffffffffffffffffffffffffffffffffff1681526020019081526020016000206000828254610f1a91906118cc565b9250508190555082600160008681526020019081526020016000206004016000828254610f4791906118cc565b9250508190555073683a59a90e14216b70057d95c243b118819f400073ffffffffffffffffffffffffffffffffffffffff1663a9059cbb33856040518363ffffffff1660e01b8152600401610f9d92919061190f565b6020604051808303816000875af1158015610fbc573d6000803e3d6000fd5b505050506040513d601f19601f82011682018060405250810190610fe09190611964565b507f0b27b8aed46d863aa21f1c0dd0ca6804e332ce068329761de4584f4f59740c618433858585604051611018959493929190611bc7565b60405180910390a160006001600086815260200190815260200160002060040154036110485761104784611118565b5b50505050565b6001600084815260200190815260200160002060050160009054906101000a900460ff16156110b2576040517f08c379a00000000000000000000000000000000000000000000000000000000081526004016110a9906120aa565b60405180910390fd5b81816001600086815260200190815260200160002060020191826110d79291906120d5565b507fcc1163b9f5b7a48feb09e3106d97fe333e2b9b8d72544e2f9d4470f483e5214e83838360405161110b939291906121a5565b60405180910390a1505050565b6001600082815260200190815260200160002060050160009054906101000a900460ff161561117c576040517f08c379a000000000000000000000000000000000000000000000000000000000815260040161117390612223565b60405180910390fd5b60006001600083815260200190815260200160002060040154146111d5576040517f08c379a00000000000000000000000000000000000000000000000000000000081526004016111cc906122b5565b60405180910390fd5b600180600083815260200190815260200160002060050160006101000a81548160ff0219169083151502179055507f5cff112f1cb588779b4e6aae6baf0d738747fcf132f0ff202adcec605f9cabdf816040516112329190611337565b60405180910390a150565b611b2d806122d683390190565b600080fd5b600080fd5b6000819050919050565b61126781611254565b811461127257600080fd5b50565b6000813590506112848161125e565b92915050565b600073ffffffffffffffffffffffffffffffffffffffff82169050919050565b60006112b58261128a565b9050919050565b6112c5816112aa565b81146112d057600080fd5b50565b6000813590506112e2816112bc565b92915050565b600080604083850312156112ff576112fe61124a565b5b600061130d85828601611275565b925050602061131e858286016112d3565b9150509250929050565b61133181611254565b82525050565b600060208201905061134c6000830184611328565b92915050565b6000602082840312156113685761136761124a565b5b600061137684828501611275565b91505092915050565b6000819050919050565b60006113a461139f61139a8461128a565b61137f565b61128a565b9050919050565b60006113b682611389565b9050919050565b60006113c8826113ab565b9050919050565b6113d8816113bd565b82525050565b600081519050919050565b600082825260208201905092915050565b60005b838110156114185780820151818401526020810190506113fd565b60008484015250505050565b6000601f19601f8301169050919050565b6000611440826113de565b61144a81856113e9565b935061145a8185602086016113fa565b61146381611424565b840191505092915050565b60008115159050919050565b6114838161146e565b82525050565b600060c08201905061149e6000830189611328565b6114ab60208301886113cf565b81810360408301526114bd8187611435565b90506114cc6060830186611328565b6114d96080830185611328565b6114e660a083018461147a565b979650505050505050565b600080fd5b600080fd5b600080fd5b60008083601f840112611516576115156114f1565b5b8235905067ffffffffffffffff811115611533576115326114f6565b5b60208301915083600182028301111561154f5761154e6114fb565b5b9250929050565b600080600080606085870312156115705761156f61124a565b5b600061157e87828801611275565b945050602061158f87828801611275565b935050604085013567ffffffffffffffff8111156115b0576115af61124f565b5b6115bc87828801611500565b925092505092959194509250565b6000806000604084860312156115e3576115e261124a565b5b600084013567ffffffffffffffff8111156116015761160061124f565b5b61160d86828701611500565b9350935050602061162086828701611275565b9150509250925092565b6000806000606084860312156116435761164261124a565b5b600061165186828701611275565b9350506020611662868287016112d3565b925050604061167386828701611275565b9150509250925092565b6000611688826113ab565b9050919050565b6116988161167d565b82525050565b60006020820190506116b3600083018461168f565b92915050565b6000806000604084860312156116d2576116d161124a565b5b60006116e086828701611275565b935050602084013567ffffffffffffffff8111156117015761170061124f565b5b61170d86828701611500565b92509250509250925092565b7f4e487b7100000000000000000000000000000000000000000000000000000000600052602260045260246000fd5b6000600282049050600182168061176057607f821691505b60208210810361177357611772611719565b5b50919050565b7f42617463682068617320616c7265616479206265656e2066696e616c697a656460008201527f2e00000000000000000000000000000000000000000000000000000000000000602082015250565b60006117d56021836113e9565b91506117e082611779565b604082019050919050565b60006020820190508181036000830152611804816117c8565b9050919050565b7f496e73756666696369656e742062616c616e636520666f72207769746864726160008201527f77616c2e00000000000000000000000000000000000000000000000000000000602082015250565b60006118676024836113e9565b91506118728261180b565b604082019050919050565b600060208201905081810360008301526118968161185a565b9050919050565b7f4e487b7100000000000000000000000000000000000000000000000000000000600052601160045260246000fd5b60006118d782611254565b91506118e283611254565b92508282039050818111156118fa576118f961189d565b5b92915050565b611909816112aa565b82525050565b60006040820190506119246000830185611900565b6119316020830184611328565b9392505050565b6119418161146e565b811461194c57600080fd5b50565b60008151905061195e81611938565b92915050565b60006020828403121561197a5761197961124a565b5b60006119888482850161194f565b91505092915050565b60008190508160005260206000209050919050565b600081546119b381611748565b6119bd81866113e9565b945060018216600081146119d857600181146119ee57611a21565b60ff198316865281151560200286019350611a21565b6119f785611991565b60005b83811015611a19578154818901526001820191506020810190506119fa565b808801955050505b50505092915050565b82818337600083830152505050565b6000611a4583856113e9565b9350611a52838584611a2a565b611a5b83611424565b840190509392505050565b600060a082019050611a7b6000830189611328565b611a886020830188611900565b611a956040830187611328565b8181036060830152611aa781866119a6565b90508181036080830152611abc818486611a39565b9050979650505050505050565b7f426174636820686173206265656e2066696e616c697a65642e00000000000000600082015250565b6000611aff6019836113e9565b9150611b0a82611ac9565b602082019050919050565b60006020820190508181036000830152611b2e81611af2565b9050919050565b7f496e73756666696369656e742062616c616e636520666f72207061727469616c60008201527f207769746864726177616c2e0000000000000000000000000000000000000000602082015250565b6000611b91602c836113e9565b9150611b9c82611b35565b604082019050919050565b60006020820190508181036000830152611bc081611b84565b9050919050565b6000608082019050611bdc6000830188611328565b611be96020830187611900565b611bf66040830186611328565b8181036060830152611c09818486611a39565b90509695505050505050565b6000611c2082611254565b9150611c2b83611254565b9250828201905080821115611c4357611c4261189d565b5b92915050565b6000606082019050611c5e6000830186611900565b611c6b6020830185611900565b611c786040830184611328565b949350505050565b6000611c8b826113ab565b9050919050565b611c9b81611c80565b82525050565b6000606082019050611cb66000830186611c92565b611cc36020830185611328565b611cd06040830184611328565b949350505050565b7f4e487b7100000000000000000000000000000000000000000000000000000000600052604160045260246000fd5b60006020601f8301049050919050565b600082821b905092915050565b600060088302611d547fffffffffffffffffffffffffffffffffffffffffffffffffffffffffffffffff82611d17565b611d5e8683611d17565b95508019841693508086168417925050509392505050565b6000611d91611d8c611d8784611254565b61137f565b611254565b9050919050565b6000819050919050565b611dab83611d76565b611dbf611db782611d98565b848454611d24565b825550505050565b600090565b611dd4611dc7565b611ddf818484611da2565b505050565b5b81811015611e0357611df8600082611dcc565b600181019050611de5565b5050565b601f821115611e4857611e1981611991565b611e2284611d07565b81016020851015611e31578190505b611e45611e3d85611d07565b830182611de4565b50505b505050565b600082821c905092915050565b6000611e6b60001984600802611e4d565b1980831691505092915050565b6000611e848383611e5a565b9150826002028217905092915050565b611e9d826113de565b67ffffffffffffffff811115611eb657611eb5611cd8565b5b611ec08254611748565b611ecb828285611e07565b600060209050601f831160018114611efe5760008415611eec578287015190505b611ef68582611e78565b865550611f5e565b601f198416611f0c86611991565b60005b82811015611f3457848901518255600182019150602085019450602081019050611f0f565b86831015611f515784890151611f4d601f891682611e5a565b8355505b6001600288020188555050505b505050505050565b6000606082019050611f7b6000830187611328565b8181036020830152611f8e818587611a39565b9050611f9d6040830184611328565b95945050505050565b7f496e73756666696369656e742062616c616e636520666f72207472616e73666560008201527f722e000000000000000000000000000000000000000000000000000000000000602082015250565b60006120026022836113e9565b915061200d82611fa6565b604082019050919050565b6000602082019050818103600083015261203181611ff5565b9050919050565b7f43616e6e6f74206d6f64696679206174746573746174696f6e20666f7220612060008201527f66696e616c697a65642062617463682e00000000000000000000000000000000602082015250565b60006120946030836113e9565b915061209f82612038565b604082019050919050565b600060208201905081810360008301526120c381612087565b9050919050565b600082905092915050565b6120df83836120ca565b67ffffffffffffffff8111156120f8576120f7611cd8565b5b6121028254611748565b61210d828285611e07565b6000601f83116001811461213c576000841561212a578287013590505b6121348582611e78565b86555061219c565b601f19841661214a86611991565b60005b828110156121725784890135825560018201915060208501945060208101905061214d565b8683101561218f578489013561218b601f891682611e5a565b8355505b6001600288020188555050505b50505050505050565b60006040820190506121ba6000830186611328565b81810360208301526121cd818486611a39565b9050949350505050565b7f426174636820697320616c72656164792066696e616c697a65642e0000000000600082015250565b600061220d601b836113e9565b9150612218826121d7565b602082019050919050565b6000602082019050818103600083015261223c81612200565b9050919050565b7f546865726520617265207374696c6c20756e77697468647261776e20746f6b6560008201527f6e732e0000000000000000000000000000000000000000000000000000000000602082015250565b600061229f6023836113e9565b91506122aa82612243565b604082019050919050565b600060208201905081810360008301526122ce81612292565b905091905056fe608060405234801561001057600080fd5b50604051611b2d380380611b2d83398181016040528101906100329190610697565b6100418261011860201b60201c565b6040516020016100519190610781565b6040516020818303038152906040526040518060400160405280600481526020017f504641540000000000000000000000000000000000000000000000000000000081525081600390816100a591906109e2565b5080600490816100b591906109e2565b50505082600560006101000a81548173ffffffffffffffffffffffffffffffffffffffff021916908373ffffffffffffffffffffffffffffffffffffffff1602179055508160068190555061011033826101ec60201b60201c565b505050610bd1565b60606000600161012d8461027460201b60201c565b01905060008167ffffffffffffffff81111561014c5761014b6107a7565b5b6040519080825280601f01601f19166020018201604052801561017e5781602001600182028036833780820191505090505b509050600082602001820190505b6001156101e1578080600190039150507f3031323334353637383961626364656600000000000000000000000000000000600a86061a8153600a85816101d5576101d4610ab4565b5b0494506000850361018c575b819350505050919050565b600073ffffffffffffffffffffffffffffffffffffffff168273ffffffffffffffffffffffffffffffffffffffff160361025e5760006040517fec442f050000000000000000000000000000000000000000000000000000000081526004016102559190610af2565b60405180910390fd5b610270600083836103c760201b60201c565b5050565b600080600090507a184f03e93ff9f4daa797ed6e38ed64bf6a1f01000000000000000083106102d2577a184f03e93ff9f4daa797ed6e38ed64bf6a1f01000000000000000083816102c8576102c7610ab4565b5b0492506040810190505b6d04ee2d6d415b85acef8100000000831061030f576d04ee2d6d415b85acef8100000000838161030557610304610ab4565b5b0492506020810190505b662386f26fc10000831061033e57662386f26fc10000838161033457610333610ab4565b5b0492506010810190505b6305f5e1008310610367576305f5e100838161035d5761035c610ab4565b5b0492506008810190505b612710831061038c57612710838161038257610381610ab4565b5b0492506004810190505b606483106103af57606483816103a5576103a4610ab4565b5b0492506002810190505b600a83106103be576001810190505b80915050919050565b600073ffffffffffffffffffffffffffffffffffffffff168373ffffffffffffffffffffffffffffffffffffffff160361041957806002600082825461040d9190610b3c565b925050819055506104ec565b60008060008573ffffffffffffffffffffffffffffffffffffffff1673ffffffffffffffffffffffffffffffffffffffff168152602001908152602001600020549050818110156104a5578381836040517fe450d38c00000000000000000000000000000000000000000000000000000000815260040161049c93929190610b7f565b60405180910390fd5b8181036000808673ffffffffffffffffffffffffffffffffffffffff1673ffffffffffffffffffffffffffffffffffffffff16815260200190815260200160002081905550505b600073ffffffffffffffffffffffffffffffffffffffff168273ffffffffffffffffffffffffffffffffffffffff16036105355780600260008282540392505081905550610582565b806000808473ffffffffffffffffffffffffffffffffffffffff1673ffffffffffffffffffffffffffffffffffffffff168152602001908152602001600020600082825401925050819055505b8173ffffffffffffffffffffffffffffffffffffffff168373ffffffffffffffffffffffffffffffffffffffff167fddf252ad1be2c89b69c2b068fc378daa952ba7f163c4a11628f55a4df523b3ef836040516105df9190610bb6565b60405180910390a3505050565b600080fd5b600073ffffffffffffffffffffffffffffffffffffffff82169050919050565b600061061c826105f1565b9050919050565b600061062e82610611565b9050919050565b61063e81610623565b811461064957600080fd5b50565b60008151905061065b81610635565b92915050565b6000819050919050565b61067481610661565b811461067f57600080fd5b50565b6000815190506106918161066b565b92915050565b6000806000606084860312156106b0576106af6105ec565b5b60006106be8682870161064c565b93505060206106cf86828701610682565b92505060406106e086828701610682565b9150509250925092565b7f50696b61506179204672616374696f6e616c2042617463682023000000000000815250565b600081519050919050565b600081905092915050565b60005b83811015610744578082015181840152602081019050610729565b60008484015250505050565b600061075b82610710565b610765818561071b565b9350610775818560208601610726565b80840191505092915050565b600061078c826106ea565b601a8201915061079c8284610750565b915081905092915050565b7f4e487b7100000000000000000000000000000000000000000000000000000000600052604160045260246000fd5b7f4e487b7100000000000000000000000000000000000000000000000000000000600052602260045260246000fd5b6000600282049050600182168061081d57607f821691505b6020821081036108305761082f6107d6565b5b50919050565b60008190508160005260206000209050919050565b60006020601f8301049050919050565b600082821b905092915050565b6000600883026108987fffffffffffffffffffffffffffffffffffffffffffffffffffffffffffffffff8261085b565b6108a2868361085b565b95508019841693508086168417925050509392505050565b6000819050919050565b60006108df6108da6108d584610661565b6108ba565b610661565b9050919050565b6000819050919050565b6108f9836108c4565b61090d610905826108e6565b848454610868565b825550505050565b600090565b610922610915565b61092d8184846108f0565b505050565b5b818110156109515761094660008261091a565b600181019050610933565b5050565b601f8211156109965761096781610836565b6109708461084b565b8101602085101561097f578190505b61099361098b8561084b565b830182610932565b50505b505050565b600082821c905092915050565b60006109b96000198460080261099b565b1980831691505092915050565b60006109d283836109a8565b9150826002028217905092915050565b6109eb82610710565b67ffffffffffffffff811115610a0457610a036107a7565b5b610a0e8254610805565b610a19828285610955565b600060209050601f831160018114610a4c5760008415610a3a578287015190505b610a4485826109c6565b865550610aac565b601f198416610a5a86610836565b60005b82811015610a8257848901518255600182019150602085019450602081019050610a5d565b86831015610a9f5784890151610a9b601f8916826109a8565b8355505b6001600288020188555050505b505050505050565b7f4e487b7100000000000000000000000000000000000000000000000000000000600052601260045260246000fd5b610aec81610611565b82525050565b6000602082019050610b076000830184610ae3565b92915050565b7f4e487b7100000000000000000000000000000000000000000000000000000000600052601160045260246000fd5b6000610b4782610661565b9150610b5283610661565b9250828201905080821115610b6a57610b69610b0d565b5b92915050565b610b7981610661565b82525050565b6000606082019050610b946000830186610ae3565b610ba16020830185610b70565b610bae6040830184610b70565b949350505050565b6000602082019050610bcb6000830184610b70565b92915050565b610f4d80610be06000396000f3fe608060405234801561001057600080fd5b50600436106100a95760003560e01c80633804eea0116100715780633804eea0146101685780634972134a1461018657806370a08231146101a457806395d89b41146101d4578063a9059cbb146101f2578063dd62ed3e14610222576100a9565b806306fdde03146100ae578063095ea7b3146100cc57806318160ddd146100fc57806323b872dd1461011a578063313ce5671461014a575b600080fd5b6100b6610252565b6040516100c39190610b27565b60405180910390f35b6100e660048036038101906100e19190610be2565b6102e4565b6040516100f39190610c3d565b60405180910390f35b610104610307565b6040516101119190610c67565b60405180910390f35b610134600480360381019061012f9190610c82565b610311565b6040516101419190610c3d565b60405180910390f35b610152610340565b60405161015f9190610cf1565b60405180910390f35b610170610349565b60405161017d9190610d6b565b60405180910390f35b61018e61036f565b60405161019b9190610c67565b60405180910390f35b6101be60048036038101906101b99190610d86565b610375565b6040516101cb9190610c67565b60405180910390f35b6101dc6103bd565b6040516101e99190610b27565b60405180910390f35b61020c60048036038101906102079190610be2565b61044f565b6040516102199190610c3d565b60405180910390f35b61023c60048036038101906102379190610db3565b610472565b6040516102499190610c67565b60405180910390f35b60606003805461026190610e22565b80601f016020809104026020016040519081016040528092919081815260200182805461028d90610e22565b80156102da5780601f106102af576101008083540402835291602001916102da565b820191906000526020600020905b8154815290600101906020018083116102bd57829003601f168201915b5050505050905090565b6000806102ef6104f9565b90506102fc818585610501565b600191505092915050565b6000600254905090565b60008061031c6104f9565b9050610329858285610513565b6103348585856105a7565b60019150509392505050565b60006012905090565b600560009054906101000a900473ffffffffffffffffffffffffffffffffffffffff1681565b60065481565b60008060008373ffffffffffffffffffffffffffffffffffffffff1673ffffffffffffffffffffffffffffffffffffffff168152602001908152602001600020549050919050565b6060600480546103cc90610e22565b80601f01602080910402602001604051908101604052809291908181526020018280546103f890610e22565b80156104455780601f1061041a57610100808354040283529160200191610445565b820191906000526020600020905b81548152906001019060200180831161042857829003601f168201915b5050505050905090565b60008061045a6104f9565b90506104678185856105a7565b600191505092915050565b6000600160008473ffffffffffffffffffffffffffffffffffffffff1673ffffffffffffffffffffffffffffffffffffffff16815260200190815260200160002060008373ffffffffffffffffffffffffffffffffffffffff1673ffffffffffffffffffffffffffffffffffffffff16815260200190815260200160002054905092915050565b600033905090565b61050e838383600161069b565b505050565b600061051f8484610472565b90507fffffffffffffffffffffffffffffffffffffffffffffffffffffffffffffffff81146105a15781811015610591578281836040517ffb8f41b200000000000000000000000000000000000000000000000000000000815260040161058893929190610e62565b60405180910390fd5b6105a08484848403600061069b565b5b50505050565b600073ffffffffffffffffffffffffffffffffffffffff168373ffffffffffffffffffffffffffffffffffffffff16036106195760006040517f96c6fd1e0000000000000000000000000000000000000000000000000000000081526004016106109190610e99565b60405180910390fd5b600073ffffffffffffffffffffffffffffffffffffffff168273ffffffffffffffffffffffffffffffffffffffff160361068b5760006040517fec442f050000000000000000000000000000000000000000000000000000000081526004016106829190610e99565b60405180910390fd5b610696838383610872565b505050565b600073ffffffffffffffffffffffffffffffffffffffff168473ffffffffffffffffffffffffffffffffffffffff160361070d5760006040517fe602df050000000000000000000000000000000000000000000000000000000081526004016107049190610e99565b60405180910390fd5b600073ffffffffffffffffffffffffffffffffffffffff168373ffffffffffffffffffffffffffffffffffffffff160361077f5760006040517f94280d620000000000000000000000000000000000000000000000000000000081526004016107769190610e99565b60405180910390fd5b81600160008673ffffffffffffffffffffffffffffffffffffffff1673ffffffffffffffffffffffffffffffffffffffff16815260200190815260200160002060008573ffffffffffffffffffffffffffffffffffffffff1673ffffffffffffffffffffffffffffffffffffffff16815260200190815260200160002081905550801561086c578273ffffffffffffffffffffffffffffffffffffffff168473ffffffffffffffffffffffffffffffffffffffff167f8c5be1e5ebec7d5bd14f71427d1e84f3dd0314c0f7b2291e5b200ac8c7c3b925846040516108639190610c67565b60405180910390a35b50505050565b600073ffffffffffffffffffffffffffffffffffffffff168373ffffffffffffffffffffffffffffffffffffffff16036108c45780600260008282546108b89190610ee3565b92505081905550610997565b60008060008573ffffffffffffffffffffffffffffffffffffffff1673ffffffffffffffffffffffffffffffffffffffff16815260200190815260200160002054905081811015610950578381836040517fe450d38c00000000000000000000000000000000000000000000000000000000815260040161094793929190610e62565b60405180910390fd5b8181036000808673ffffffffffffffffffffffffffffffffffffffff1673ffffffffffffffffffffffffffffffffffffffff16815260200190815260200160002081905550505b600073ffffffffffffffffffffffffffffffffffffffff168273ffffffffffffffffffffffffffffffffffffffff16036109e05780600260008282540392505081905550610a2d565b806000808473ffffffffffffffffffffffffffffffffffffffff1673ffffffffffffffffffffffffffffffffffffffff168152602001908152602001600020600082825401925050819055505b8173ffffffffffffffffffffffffffffffffffffffff168373ffffffffffffffffffffffffffffffffffffffff167fddf252ad1be2c89b69c2b068fc378daa952ba7f163c4a11628f55a4df523b3ef83604051610a8a9190610c67565b60405180910390a3505050565b600081519050919050565b600082825260208201905092915050565b60005b83811015610ad1578082015181840152602081019050610ab6565b60008484015250505050565b6000601f19601f8301169050919050565b6000610af982610a97565b610b038185610aa2565b9350610b13818560208601610ab3565b610b1c81610add565b840191505092915050565b60006020820190508181036000830152610b418184610aee565b905092915050565b600080fd5b600073ffffffffffffffffffffffffffffffffffffffff82169050919050565b6000610b7982610b4e565b9050919050565b610b8981610b6e565b8114610b9457600080fd5b50565b600081359050610ba681610b80565b92915050565b6000819050919050565b610bbf81610bac565b8114610bca57600080fd5b50565b600081359050610bdc81610bb6565b92915050565b60008060408385031215610bf957610bf8610b49565b5b6000610c0785828601610b97565b9250506020610c1885828601610bcd565b9150509250929050565b60008115159050919050565b610c3781610c22565b82525050565b6000602082019050610c526000830184610c2e565b92915050565b610c6181610bac565b82525050565b6000602082019050610c7c6000830184610c58565b92915050565b600080600060608486031215610c9b57610c9a610b49565b5b6000610ca986828701610b97565b9350506020610cba86828701610b97565b9250506040610ccb86828701610bcd565b9150509250925092565b600060ff82169050919050565b610ceb81610cd5565b82525050565b6000602082019050610d066000830184610ce2565b92915050565b6000819050919050565b6000610d31610d2c610d2784610b4e565b610d0c565b610b4e565b9050919050565b6000610d4382610d16565b9050919050565b6000610d5582610d38565b9050919050565b610d6581610d4a565b82525050565b6000602082019050610d806000830184610d5c565b92915050565b600060208284031215610d9c57610d9b610b49565b5b6000610daa84828501610b97565b91505092915050565b60008060408385031215610dca57610dc9610b49565b5b6000610dd885828601610b97565b9250506020610de985828601610b97565b9150509250929050565b7f4e487b7100000000000000000000000000000000000000000000000000000000600052602260045260246000fd5b60006002820490506001821680610e3a57607f821691505b602082108103610e4d57610e4c610df3565b5b50919050565b610e5c81610b6e565b82525050565b6000606082019050610e776000830186610e53565b610e846020830185610c58565b610e916040830184610c58565b949350505050565b6000602082019050610eae6000830184610e53565b92915050565b7f4e487b7100000000000000000000000000000000000000000000000000000000600052601160045260246000fd5b6000610eee82610bac565b9150610ef983610bac565b9250828201905080821115610f1157610f10610eb4565b5b9291505056fea264697066735822122069ac4466ce255fc0254f8c49caa9c5cfe6f5c628ef17d2c6fc19c4ddcfd1ad0664736f6c634300081b0033a26469706673582212202e474c1a2d4f20bbdc248437c8337cc3349c869fbdd0e83f3b527ada878d7b3d64736f6c634300081b0033",
  "linkReferences": {},
  "deployedLinkReferences": {}
}