{
  "_format": "hh-sol-artifact-1",
  "contractName": "PikaPay",
  "sourceName": "contracts/PikaPay.sol",
  "abi": [
    {
      "inputs": [],
      "stateMutability": "nonpayable",
      "type": "constructor"
    },
    {
      "anonymous": false,
      "inputs": [
        {
          "indexed": false,
          "internalType": "uint256",
          "name": "batchId",
          "type": "uint256"
        },
        {
          "indexed": false,
          "internalType": "address",
          "name": "beneficiary",
          "type": "address"
        },
        {
          "indexed": false,
          "internalType": "uint256",
          "name": "amount",
          "type": "uint256"
        },
        {
          "indexed": false,
          "internalType": "string",
          "name": "attestation",
          "type": "string"
        },
        {
          "indexed": false,
          "internalType": "string",
          "name": "metadata",
          "type": "string"
        }
      ],
      "name": "AttestedWithdrawal",
      "type": "event"
    },
    {
      "anonymous": false,
      "inputs": [
        {
          "indexed": false,
          "internalType": "uint256",
          "name": "batchId",
          "type": "uint256"
        },
        {
          "indexed": false,
          "internalType": "string",
          "name": "attestationDetails",
          "type": "string"
        },
        {
          "indexed": false,
          "internalType": "uint256",
          "name": "totalAmount",
          "type": "uint256"
        }
      ],
      "name": "BatchCreated",
      "type": "event"
    },
    {
      "anonymous": false,
      "inputs": [
        {
          "indexed": false,
          "internalType": "uint256",
          "name": "batchId",
          "type": "uint256"
        }
      ],
      "name": "BatchFinalized",
      "type": "event"
    },
    {
      "anonymous": false,
      "inputs": [
        {
          "indexed": false,
          "internalType": "uint256",
          "name": "batchId",
          "type": "uint256"
        },
        {
          "indexed": false,
          "internalType": "string",
          "name": "updatedAttestationDetails",
          "type": "string"
        }
      ],
      "name": "BatchUpdated",
      "type": "event"
    },
    {
      "anonymous": false,
      "inputs": [
        {
          "indexed": false,
          "internalType": "uint256",
          "name": "batchId",
          "type": "uint256"
        },
        {
          "indexed": false,
          "internalType": "address",
          "name": "beneficiary",
          "type": "address"
        },
        {
          "indexed": false,
          "internalType": "uint256",
          "name": "amount",
          "type": "uint256"
        },
        {
          "indexed": false,
          "internalType": "string",
          "name": "metadata",
          "type": "string"
        }
      ],
      "name": "PrivateWithdrawal",
      "type": "event"
    },
    {
      "inputs": [],
      "name": "USDT",
      "outputs": [
        {
          "internalType": "contract ERC20",
          "name": "",
          "type": "address"
        }
      ],
      "stateMutability": "view",
      "type": "function"
    },
    {
      "inputs": [
        {
          "internalType": "uint256",
          "name": "",
          "type": "uint256"
        }
      ],
      "name": "batchRegistry",
      "outputs": [
        {
          "internalType": "uint256",
          "name": "batchId",
          "type": "uint256"
        },
        {
          "internalType": "contract PikaFractionalAttestationToken",
          "name": "token",
          "type": "address"
        },
        {
          "internalType": "string",
          "name": "attestationDetails",
          "type": "string"
        },
        {
          "internalType": "uint256",
          "name": "totalSupply",
          "type": "uint256"
        },
        {
          "internalType": "uint256",
          "name": "remainingSupply",
          "type": "uint256"
        },
        {
          "internalType": "bool",
          "name": "isFinalized",
          "type": "bool"
        }
      ],
      "stateMutability": "view",
      "type": "function"
    },
    {
      "inputs": [
        {
          "internalType": "uint256",
          "name": "",
          "type": "uint256"
        },
        {
          "internalType": "address",
          "name": "",
          "type": "address"
        }
      ],
      "name": "beneficiaryBalances",
      "outputs": [
        {
          "internalType": "uint256",
          "name": "",
          "type": "uint256"
        }
      ],
      "stateMutability": "view",
      "type": "function"
    },
    {
      "inputs": [
        {
          "internalType": "string",
          "name": "_attestationDetails",
          "type": "string"
        },
        {
          "internalType": "uint256",
          "name": "_depositAmount",
          "type": "uint256"
        }
      ],
      "name": "createNewBatchWithAttestation",
      "outputs": [],
      "stateMutability": "nonpayable",
      "type": "function"
    },
    {
      "inputs": [
        {
          "internalType": "uint256",
          "name": "_batchId",
          "type": "uint256"
        },
        {
          "internalType": "address",
          "name": "_beneficiary",
          "type": "address"
        }
      ],
      "name": "getBeneficiaryBalance",
      "outputs": [
        {
          "internalType": "uint256",
          "name": "",
          "type": "uint256"
        }
      ],
      "stateMutability": "view",
      "type": "function"
    },
    {
      "inputs": [
        {
          "internalType": "uint256",
          "name": "_batchId",
          "type": "uint256"
        },
        {
          "internalType": "string",
          "name": "_newAttestationDetails",
          "type": "string"
        }
      ],
      "name": "modifyBatchAttestation",
      "outputs": [],
      "stateMutability": "nonpayable",
      "type": "function"
    },
    {
      "inputs": [],
      "name": "totalBatches",
      "outputs": [
        {
          "internalType": "uint256",
          "name": "",
          "type": "uint256"
        }
      ],
      "stateMutability": "view",
      "type": "function"
    },
    {
      "inputs": [
        {
          "internalType": "uint256",
          "name": "_batchId",
          "type": "uint256"
        },
        {
          "internalType": "address",
          "name": "_newOwner",
          "type": "address"
        },
        {
          "internalType": "uint256",
          "name": "_transferAmount",
          "type": "uint256"
        }
      ],
      "name": "transferBatchOwnership",
      "outputs": [],
      "stateMutability": "nonpayable",
      "type": "function"
    },
    {
      "inputs": [
        {
          "internalType": "uint256",
          "name": "_batchId",
          "type": "uint256"
        },
        {
          "internalType": "uint256",
          "name": "_partialAmount",
          "type": "uint256"
        },
        {
          "internalType": "string",
          "name": "_metadata",
          "type": "string"
        }
      ],
      "name": "withdrawPartialAmount",
      "outputs": [],
      "stateMutability": "nonpayable",
      "type": "function"
    },
    {
      "inputs": [
        {
          "internalType": "uint256",
          "name": "_batchId",
          "type": "uint256"
        },
        {
          "internalType": "uint256",
          "name": "_withdrawAmount",
          "type": "uint256"
        },
        {
          "internalType": "string",
          "name": "_metadata",
          "type": "string"
        }
      ],
      "name": "withdrawWithAttestationProof",
      "outputs": [],
      "stateMutability": "nonpayable",
      "type": "function"
    },
    {
      "inputs": [
        {
          "internalType": "uint256",
          "name": "_batchId",
          "type": "uint256"
        },
        {
          "internalType": "uint256",
          "name": "_withdrawAmount",
          "type": "uint256"
        },
        {
          "internalType": "string",
          "name": "_metadata",
          "type": "string"
        }
      ],
      "name": "withdrawWithoutAttestation",
      "outputs": [],
      "stateMutability": "nonpayable",
      "type": "function"
    }
  ],
  "bytecode": "0x608060405260008055348015601357600080fd5b50613bb3806100236000396000f3fe608060405234801561001057600080fd5b50600436106100a95760003560e01c806382afd8a21161007157806382afd8a214610169578063a913d7b914610199578063bdecd21b146101b5578063c54e44eb146101d1578063c69ac7d3146101ef578063f41228071461020b576100a9565b80633d2d07e2146100ae5780634f4ed78f146100de57806350ba83641461011357806369ff6abb1461012f57806377eafbf71461014d575b600080fd5b6100c860048036038101906100c39190611063565b610227565b6040516100d591906110b2565b60405180910390f35b6100f860048036038101906100f391906110cd565b61024c565b60405161010a96959493929190611204565b60405180910390f35b61012d600480360381019061012891906112d1565b61033d565b005b610137610694565b60405161014491906110b2565b60405180910390f35b610167600480360381019061016291906112d1565b61069a565b005b610183600480360381019061017e9190611063565b610925565b60405161019091906110b2565b60405180910390f35b6101b360048036038101906101ae9190611345565b610980565b005b6101cf60048036038101906101ca91906113a5565b610c45565b005b6101d9610dab565b6040516101e69190611419565b60405180910390f35b610209600480360381019061020491906112d1565b610dc3565b005b61022560048036038101906102209190611434565b610dc9565b005b6002602052816000526040600020602052806000526040600020600091509150505481565b60016020528060005260406000206000915090508060000154908060010160009054906101000a900473ffffffffffffffffffffffffffffffffffffffff169080600201805461029b906114c3565b80601f01602080910402602001604051908101604052809291908181526020018280546102c7906114c3565b80156103145780601f106102e957610100808354040283529160200191610314565b820191906000526020600020905b8154815290600101906020018083116102f757829003601f168201915b5050505050908060030154908060040154908060050160009054906101000a900460ff16905086565b6001600085815260200190815260200160002060050160009054906101000a900460ff16156103a1576040517f08c379a000000000000000000000000000000000000000000000000000000000815260040161039890611566565b60405180910390fd5b826002600086815260200190815260200160002060003373ffffffffffffffffffffffffffffffffffffffff1673ffffffffffffffffffffffffffffffffffffffff168152602001908152602001600020541015610434576040517f08c379a000000000000000000000000000000000000000000000000000000000815260040161042b906115f8565b60405180910390fd5b826002600086815260200190815260200160002060003373ffffffffffffffffffffffffffffffffffffffff1673ffffffffffffffffffffffffffffffffffffffff16815260200190815260200160002060008282546104949190611647565b92505081905550826001600086815260200190815260200160002060040160008282546104c19190611647565b925050819055507348db5c1155836de945fb82b6a9cf82d91ac21f1673ffffffffffffffffffffffffffffffffffffffff1663a9059cbb33856040518363ffffffff1660e01b815260040161051792919061168a565b6020604051808303816000875af1158015610536573d6000803e3d6000fd5b505050506040513d601f19601f8201168201806040525081019061055a91906116df565b506001600085815260200190815260200160002060010160009054906101000a900473ffffffffffffffffffffffffffffffffffffffff1673ffffffffffffffffffffffffffffffffffffffff1663a9059cbb33856040518363ffffffff1660e01b81526004016105cc92919061168a565b6020604051808303816000875af11580156105eb573d6000803e3d6000fd5b505050506040513d601f19601f8201168201806040525081019061060f91906116df565b507f8eb386ea7cbdb4a91109cea5fed53b6b02f667c149086a609ad4347fb0a5d78884338560016000898152602001908152602001600020600201868660405161065e969594939291906117e1565b60405180910390a1600060016000868152602001908152602001600020600401540361068e5761068d84610e93565b5b50505050565b60005481565b6001600085815260200190815260200160002060050160009054906101000a900460ff16156106fe576040517f08c379a00000000000000000000000000000000000000000000000000000000081526004016106f590611890565b60405180910390fd5b826002600086815260200190815260200160002060003373ffffffffffffffffffffffffffffffffffffffff1673ffffffffffffffffffffffffffffffffffffffff168152602001908152602001600020541015610791576040517f08c379a000000000000000000000000000000000000000000000000000000000815260040161078890611922565b60405180910390fd5b826002600086815260200190815260200160002060003373ffffffffffffffffffffffffffffffffffffffff1673ffffffffffffffffffffffffffffffffffffffff16815260200190815260200160002060008282546107f19190611647565b925050819055508260016000868152602001908152602001600020600401600082825461081e9190611647565b925050819055507348db5c1155836de945fb82b6a9cf82d91ac21f1673ffffffffffffffffffffffffffffffffffffffff1663a9059cbb33856040518363ffffffff1660e01b815260040161087492919061168a565b6020604051808303816000875af1158015610893573d6000803e3d6000fd5b505050506040513d601f19601f820116820180604052508101906108b791906116df565b507f0b27b8aed46d863aa21f1c0dd0ca6804e332ce068329761de4584f4f59740c6184338585856040516108ef959493929190611942565b60405180910390a1600060016000868152602001908152602001600020600401540361091f5761091e84610e93565b5b50505050565b60006002600084815260200190815260200160002060008373ffffffffffffffffffffffffffffffffffffffff1673ffffffffffffffffffffffffffffffffffffffff16815260200190815260200160002054905092915050565b60016000808282546109929190611990565b925050819055507348db5c1155836de945fb82b6a9cf82d91ac21f1673ffffffffffffffffffffffffffffffffffffffff166323b872dd3330846040518463ffffffff1660e01b81526004016109ea939291906119c4565b6020604051808303816000875af1158015610a09573d6000803e3d6000fd5b505050506040513d601f19601f82011682018060405250810190610a2d91906116df565b5060003060005483604051610a4190610fb8565b610a4d93929190611a1c565b604051809103906000f080158015610a69573d6000803e3d6000fd5b5090506040518060c0016040528060005481526020018273ffffffffffffffffffffffffffffffffffffffff16815260200185858080601f016020809104026020016040519081016040528093929190818152602001838380828437600081840152601f19601f8201169050808301925050505050505081526020018381526020018381526020016000151581525060016000805481526020019081526020016000206000820151816000015560208201518160010160006101000a81548173ffffffffffffffffffffffffffffffffffffffff021916908373ffffffffffffffffffffffffffffffffffffffff1602179055506040820151816002019081610b729190611c0f565b50606082015181600301556080820151816004015560a08201518160050160006101000a81548160ff02191690831515021790555090505081600260008054815260200190815260200160002060003373ffffffffffffffffffffffffffffffffffffffff1673ffffffffffffffffffffffffffffffffffffffff168152602001908152602001600020819055507f58c168780de5fc719a1e7a85c7eca394e664c0e74b7c9ebc621f0b093112d04b600054858585604051610c379493929190611ce1565b60405180910390a150505050565b806002600085815260200190815260200160002060003373ffffffffffffffffffffffffffffffffffffffff1673ffffffffffffffffffffffffffffffffffffffff168152602001908152602001600020541015610cd8576040517f08c379a0000000000000000000000000000000000000000000000000000000008152600401610ccf90611d93565b60405180910390fd5b806002600085815260200190815260200160002060003373ffffffffffffffffffffffffffffffffffffffff1673ffffffffffffffffffffffffffffffffffffffff1681526020019081526020016000206000828254610d389190611647565b92505081905550806002600085815260200190815260200160002060008473ffffffffffffffffffffffffffffffffffffffff1673ffffffffffffffffffffffffffffffffffffffff1681526020019081526020016000206000828254610d9f9190611990565b92505081905550505050565b7348db5c1155836de945fb82b6a9cf82d91ac21f1681565b50505050565b6001600084815260200190815260200160002060050160009054906101000a900460ff1615610e2d576040517f08c379a0000000000000000000000000000000000000000000000000000000008152600401610e2490611e25565b60405180910390fd5b8181600160008681526020019081526020016000206002019182610e52929190611e50565b507fcc1163b9f5b7a48feb09e3106d97fe333e2b9b8d72544e2f9d4470f483e5214e838383604051610e8693929190611f20565b60405180910390a1505050565b6001600082815260200190815260200160002060050160009054906101000a900460ff1615610ef7576040517f08c379a0000000000000000000000000000000000000000000000000000000008152600401610eee90611f9e565b60405180910390fd5b6000600160008381526020019081526020016000206004015414610f50576040517f08c379a0000000000000000000000000000000000000000000000000000000008152600401610f4790612030565b60405180910390fd5b600180600083815260200190815260200160002060050160006101000a81548160ff0219169083151502179055507f5cff112f1cb588779b4e6aae6baf0d738747fcf132f0ff202adcec605f9cabdf81604051610fad91906110b2565b60405180910390a150565b611b2d8061205183390190565b600080fd5b600080fd5b6000819050919050565b610fe281610fcf565b8114610fed57600080fd5b50565b600081359050610fff81610fd9565b92915050565b600073ffffffffffffffffffffffffffffffffffffffff82169050919050565b600061103082611005565b9050919050565b61104081611025565b811461104b57600080fd5b50565b60008135905061105d81611037565b92915050565b6000806040838503121561107a57611079610fc5565b5b600061108885828601610ff0565b92505060206110998582860161104e565b9150509250929050565b6110ac81610fcf565b82525050565b60006020820190506110c760008301846110a3565b92915050565b6000602082840312156110e3576110e2610fc5565b5b60006110f184828501610ff0565b91505092915050565b6000819050919050565b600061111f61111a61111584611005565b6110fa565b611005565b9050919050565b600061113182611104565b9050919050565b600061114382611126565b9050919050565b61115381611138565b82525050565b600081519050919050565b600082825260208201905092915050565b60005b83811015611193578082015181840152602081019050611178565b60008484015250505050565b6000601f19601f8301169050919050565b60006111bb82611159565b6111c58185611164565b93506111d5818560208601611175565b6111de8161119f565b840191505092915050565b60008115159050919050565b6111fe816111e9565b82525050565b600060c08201905061121960008301896110a3565b611226602083018861114a565b818103604083015261123881876111b0565b905061124760608301866110a3565b61125460808301856110a3565b61126160a08301846111f5565b979650505050505050565b600080fd5b600080fd5b600080fd5b60008083601f8401126112915761129061126c565b5b8235905067ffffffffffffffff8111156112ae576112ad611271565b5b6020830191508360018202830111156112ca576112c9611276565b5b9250929050565b600080600080606085870312156112eb576112ea610fc5565b5b60006112f987828801610ff0565b945050602061130a87828801610ff0565b935050604085013567ffffffffffffffff81111561132b5761132a610fca565b5b6113378782880161127b565b925092505092959194509250565b60008060006040848603121561135e5761135d610fc5565b5b600084013567ffffffffffffffff81111561137c5761137b610fca565b5b6113888682870161127b565b9350935050602061139b86828701610ff0565b9150509250925092565b6000806000606084860312156113be576113bd610fc5565b5b60006113cc86828701610ff0565b93505060206113dd8682870161104e565b92505060406113ee86828701610ff0565b9150509250925092565b600061140382611126565b9050919050565b611413816113f8565b82525050565b600060208201905061142e600083018461140a565b92915050565b60008060006040848603121561144d5761144c610fc5565b5b600061145b86828701610ff0565b935050602084013567ffffffffffffffff81111561147c5761147b610fca565b5b6114888682870161127b565b92509250509250925092565b7f4e487b7100000000000000000000000000000000000000000000000000000000600052602260045260246000fd5b600060028204905060018216806114db57607f821691505b6020821081036114ee576114ed611494565b5b50919050565b7f42617463682068617320616c7265616479206265656e2066696e616c697a656460008201527f2e00000000000000000000000000000000000000000000000000000000000000602082015250565b6000611550602183611164565b915061155b826114f4565b604082019050919050565b6000602082019050818103600083015261157f81611543565b9050919050565b7f496e73756666696369656e742062616c616e636520666f72207769746864726160008201527f77616c2e00000000000000000000000000000000000000000000000000000000602082015250565b60006115e2602483611164565b91506115ed82611586565b604082019050919050565b60006020820190508181036000830152611611816115d5565b9050919050565b7f4e487b7100000000000000000000000000000000000000000000000000000000600052601160045260246000fd5b600061165282610fcf565b915061165d83610fcf565b925082820390508181111561167557611674611618565b5b92915050565b61168481611025565b82525050565b600060408201905061169f600083018561167b565b6116ac60208301846110a3565b9392505050565b6116bc816111e9565b81146116c757600080fd5b50565b6000815190506116d9816116b3565b92915050565b6000602082840312156116f5576116f4610fc5565b5b6000611703848285016116ca565b91505092915050565b60008190508160005260206000209050919050565b6000815461172e816114c3565b6117388186611164565b9450600182166000811461175357600181146117695761179c565b60ff19831686528115156020028601935061179c565b6117728561170c565b60005b8381101561179457815481890152600182019150602081019050611775565b808801955050505b50505092915050565b82818337600083830152505050565b60006117c08385611164565b93506117cd8385846117a5565b6117d68361119f565b840190509392505050565b600060a0820190506117f660008301896110a3565b611803602083018861167b565b61181060408301876110a3565b81810360608301526118228186611721565b905081810360808301526118378184866117b4565b9050979650505050505050565b7f426174636820686173206265656e2066696e616c697a65642e00000000000000600082015250565b600061187a601983611164565b915061188582611844565b602082019050919050565b600060208201905081810360008301526118a98161186d565b9050919050565b7f496e73756666696369656e742062616c616e636520666f72207061727469616c60008201527f207769746864726177616c2e0000000000000000000000000000000000000000602082015250565b600061190c602c83611164565b9150611917826118b0565b604082019050919050565b6000602082019050818103600083015261193b816118ff565b9050919050565b600060808201905061195760008301886110a3565b611964602083018761167b565b61197160408301866110a3565b81810360608301526119848184866117b4565b90509695505050505050565b600061199b82610fcf565b91506119a683610fcf565b92508282019050808211156119be576119bd611618565b5b92915050565b60006060820190506119d9600083018661167b565b6119e6602083018561167b565b6119f360408301846110a3565b949350505050565b6000611a0682611126565b9050919050565b611a16816119fb565b82525050565b6000606082019050611a316000830186611a0d565b611a3e60208301856110a3565b611a4b60408301846110a3565b949350505050565b7f4e487b7100000000000000000000000000000000000000000000000000000000600052604160045260246000fd5b60006020601f8301049050919050565b600082821b905092915050565b600060088302611acf7fffffffffffffffffffffffffffffffffffffffffffffffffffffffffffffffff82611a92565b611ad98683611a92565b95508019841693508086168417925050509392505050565b6000611b0c611b07611b0284610fcf565b6110fa565b610fcf565b9050919050565b6000819050919050565b611b2683611af1565b611b3a611b3282611b13565b848454611a9f565b825550505050565b600090565b611b4f611b42565b611b5a818484611b1d565b505050565b5b81811015611b7e57611b73600082611b47565b600181019050611b60565b5050565b601f821115611bc357611b948161170c565b611b9d84611a82565b81016020851015611bac578190505b611bc0611bb885611a82565b830182611b5f565b50505b505050565b600082821c905092915050565b6000611be660001984600802611bc8565b1980831691505092915050565b6000611bff8383611bd5565b9150826002028217905092915050565b611c1882611159565b67ffffffffffffffff811115611c3157611c30611a53565b5b611c3b82546114c3565b611c46828285611b82565b600060209050601f831160018114611c795760008415611c67578287015190505b611c718582611bf3565b865550611cd9565b601f198416611c878661170c565b60005b82811015611caf57848901518255600182019150602085019450602081019050611c8a565b86831015611ccc5784890151611cc8601f891682611bd5565b8355505b6001600288020188555050505b505050505050565b6000606082019050611cf660008301876110a3565b8181036020830152611d098185876117b4565b9050611d1860408301846110a3565b95945050505050565b7f496e73756666696369656e742062616c616e636520666f72207472616e73666560008201527f722e000000000000000000000000000000000000000000000000000000000000602082015250565b6000611d7d602283611164565b9150611d8882611d21565b604082019050919050565b60006020820190508181036000830152611dac81611d70565b9050919050565b7f43616e6e6f74206d6f64696679206174746573746174696f6e20666f7220612060008201527f66696e616c697a65642062617463682e00000000000000000000000000000000602082015250565b6000611e0f603083611164565b9150611e1a82611db3565b604082019050919050565b60006020820190508181036000830152611e3e81611e02565b9050919050565b600082905092915050565b611e5a8383611e45565b67ffffffffffffffff811115611e7357611e72611a53565b5b611e7d82546114c3565b611e88828285611b82565b6000601f831160018114611eb75760008415611ea5578287013590505b611eaf8582611bf3565b865550611f17565b601f198416611ec58661170c565b60005b82811015611eed57848901358255600182019150602085019450602081019050611ec8565b86831015611f0a5784890135611f06601f891682611bd5565b8355505b6001600288020188555050505b50505050505050565b6000604082019050611f3560008301866110a3565b8181036020830152611f488184866117b4565b9050949350505050565b7f426174636820697320616c72656164792066696e616c697a65642e0000000000600082015250565b6000611f88601b83611164565b9150611f9382611f52565b602082019050919050565b60006020820190508181036000830152611fb781611f7b565b9050919050565b7f546865726520617265207374696c6c20756e77697468647261776e20746f6b6560008201527f6e732e0000000000000000000000000000000000000000000000000000000000602082015250565b600061201a602383611164565b915061202582611fbe565b604082019050919050565b600060208201905081810360008301526120498161200d565b905091905056fe608060405234801561001057600080fd5b50604051611b2d380380611b2d83398181016040528101906100329190610697565b6100418261011860201b60201c565b6040516020016100519190610781565b6040516020818303038152906040526040518060400160405280600481526020017f504641540000000000000000000000000000000000000000000000000000000081525081600390816100a591906109e2565b5080600490816100b591906109e2565b50505082600560006101000a81548173ffffffffffffffffffffffffffffffffffffffff021916908373ffffffffffffffffffffffffffffffffffffffff1602179055508160068190555061011033826101ec60201b60201c565b505050610bd1565b60606000600161012d8461027460201b60201c565b01905060008167ffffffffffffffff81111561014c5761014b6107a7565b5b6040519080825280601f01601f19166020018201604052801561017e5781602001600182028036833780820191505090505b509050600082602001820190505b6001156101e1578080600190039150507f3031323334353637383961626364656600000000000000000000000000000000600a86061a8153600a85816101d5576101d4610ab4565b5b0494506000850361018c575b819350505050919050565b600073ffffffffffffffffffffffffffffffffffffffff168273ffffffffffffffffffffffffffffffffffffffff160361025e5760006040517fec442f050000000000000000000000000000000000000000000000000000000081526004016102559190610af2565b60405180910390fd5b610270600083836103c760201b60201c565b5050565b600080600090507a184f03e93ff9f4daa797ed6e38ed64bf6a1f01000000000000000083106102d2577a184f03e93ff9f4daa797ed6e38ed64bf6a1f01000000000000000083816102c8576102c7610ab4565b5b0492506040810190505b6d04ee2d6d415b85acef8100000000831061030f576d04ee2d6d415b85acef8100000000838161030557610304610ab4565b5b0492506020810190505b662386f26fc10000831061033e57662386f26fc10000838161033457610333610ab4565b5b0492506010810190505b6305f5e1008310610367576305f5e100838161035d5761035c610ab4565b5b0492506008810190505b612710831061038c57612710838161038257610381610ab4565b5b0492506004810190505b606483106103af57606483816103a5576103a4610ab4565b5b0492506002810190505b600a83106103be576001810190505b80915050919050565b600073ffffffffffffffffffffffffffffffffffffffff168373ffffffffffffffffffffffffffffffffffffffff160361041957806002600082825461040d9190610b3c565b925050819055506104ec565b60008060008573ffffffffffffffffffffffffffffffffffffffff1673ffffffffffffffffffffffffffffffffffffffff168152602001908152602001600020549050818110156104a5578381836040517fe450d38c00000000000000000000000000000000000000000000000000000000815260040161049c93929190610b7f565b60405180910390fd5b8181036000808673ffffffffffffffffffffffffffffffffffffffff1673ffffffffffffffffffffffffffffffffffffffff16815260200190815260200160002081905550505b600073ffffffffffffffffffffffffffffffffffffffff168273ffffffffffffffffffffffffffffffffffffffff16036105355780600260008282540392505081905550610582565b806000808473ffffffffffffffffffffffffffffffffffffffff1673ffffffffffffffffffffffffffffffffffffffff168152602001908152602001600020600082825401925050819055505b8173ffffffffffffffffffffffffffffffffffffffff168373ffffffffffffffffffffffffffffffffffffffff167fddf252ad1be2c89b69c2b068fc378daa952ba7f163c4a11628f55a4df523b3ef836040516105df9190610bb6565b60405180910390a3505050565b600080fd5b600073ffffffffffffffffffffffffffffffffffffffff82169050919050565b600061061c826105f1565b9050919050565b600061062e82610611565b9050919050565b61063e81610623565b811461064957600080fd5b50565b60008151905061065b81610635565b92915050565b6000819050919050565b61067481610661565b811461067f57600080fd5b50565b6000815190506106918161066b565b92915050565b6000806000606084860312156106b0576106af6105ec565b5b60006106be8682870161064c565b93505060206106cf86828701610682565b92505060406106e086828701610682565b9150509250925092565b7f50696b61506179204672616374696f6e616c2042617463682023000000000000815250565b600081519050919050565b600081905092915050565b60005b83811015610744578082015181840152602081019050610729565b60008484015250505050565b600061075b82610710565b610765818561071b565b9350610775818560208601610726565b80840191505092915050565b600061078c826106ea565b601a8201915061079c8284610750565b915081905092915050565b7f4e487b7100000000000000000000000000000000000000000000000000000000600052604160045260246000fd5b7f4e487b7100000000000000000000000000000000000000000000000000000000600052602260045260246000fd5b6000600282049050600182168061081d57607f821691505b6020821081036108305761082f6107d6565b5b50919050565b60008190508160005260206000209050919050565b60006020601f8301049050919050565b600082821b905092915050565b6000600883026108987fffffffffffffffffffffffffffffffffffffffffffffffffffffffffffffffff8261085b565b6108a2868361085b565b95508019841693508086168417925050509392505050565b6000819050919050565b60006108df6108da6108d584610661565b6108ba565b610661565b9050919050565b6000819050919050565b6108f9836108c4565b61090d610905826108e6565b848454610868565b825550505050565b600090565b610922610915565b61092d8184846108f0565b505050565b5b818110156109515761094660008261091a565b600181019050610933565b5050565b601f8211156109965761096781610836565b6109708461084b565b8101602085101561097f578190505b61099361098b8561084b565b830182610932565b50505b505050565b600082821c905092915050565b60006109b96000198460080261099b565b1980831691505092915050565b60006109d283836109a8565b9150826002028217905092915050565b6109eb82610710565b67ffffffffffffffff811115610a0457610a036107a7565b5b610a0e8254610805565b610a19828285610955565b600060209050601f831160018114610a4c5760008415610a3a578287015190505b610a4485826109c6565b865550610aac565b601f198416610a5a86610836565b60005b82811015610a8257848901518255600182019150602085019450602081019050610a5d565b86831015610a9f5784890151610a9b601f8916826109a8565b8355505b6001600288020188555050505b505050505050565b7f4e487b7100000000000000000000000000000000000000000000000000000000600052601260045260246000fd5b610aec81610611565b82525050565b6000602082019050610b076000830184610ae3565b92915050565b7f4e487b7100000000000000000000000000000000000000000000000000000000600052601160045260246000fd5b6000610b4782610661565b9150610b5283610661565b9250828201905080821115610b6a57610b69610b0d565b5b92915050565b610b7981610661565b82525050565b6000606082019050610b946000830186610ae3565b610ba16020830185610b70565b610bae6040830184610b70565b949350505050565b6000602082019050610bcb6000830184610b70565b92915050565b610f4d80610be06000396000f3fe608060405234801561001057600080fd5b50600436106100a95760003560e01c80633804eea0116100715780633804eea0146101685780634972134a1461018657806370a08231146101a457806395d89b41146101d4578063a9059cbb146101f2578063dd62ed3e14610222576100a9565b806306fdde03146100ae578063095ea7b3146100cc57806318160ddd146100fc57806323b872dd1461011a578063313ce5671461014a575b600080fd5b6100b6610252565b6040516100c39190610b27565b60405180910390f35b6100e660048036038101906100e19190610be2565b6102e4565b6040516100f39190610c3d565b60405180910390f35b610104610307565b6040516101119190610c67565b60405180910390f35b610134600480360381019061012f9190610c82565b610311565b6040516101419190610c3d565b60405180910390f35b610152610340565b60405161015f9190610cf1565b60405180910390f35b610170610349565b60405161017d9190610d6b565b60405180910390f35b61018e61036f565b60405161019b9190610c67565b60405180910390f35b6101be60048036038101906101b99190610d86565b610375565b6040516101cb9190610c67565b60405180910390f35b6101dc6103bd565b6040516101e99190610b27565b60405180910390f35b61020c60048036038101906102079190610be2565b61044f565b6040516102199190610c3d565b60405180910390f35b61023c60048036038101906102379190610db3565b610472565b6040516102499190610c67565b60405180910390f35b60606003805461026190610e22565b80601f016020809104026020016040519081016040528092919081815260200182805461028d90610e22565b80156102da5780601f106102af576101008083540402835291602001916102da565b820191906000526020600020905b8154815290600101906020018083116102bd57829003601f168201915b5050505050905090565b6000806102ef6104f9565b90506102fc818585610501565b600191505092915050565b6000600254905090565b60008061031c6104f9565b9050610329858285610513565b6103348585856105a7565b60019150509392505050565b60006012905090565b600560009054906101000a900473ffffffffffffffffffffffffffffffffffffffff1681565b60065481565b60008060008373ffffffffffffffffffffffffffffffffffffffff1673ffffffffffffffffffffffffffffffffffffffff168152602001908152602001600020549050919050565b6060600480546103cc90610e22565b80601f01602080910402602001604051908101604052809291908181526020018280546103f890610e22565b80156104455780601f1061041a57610100808354040283529160200191610445565b820191906000526020600020905b81548152906001019060200180831161042857829003601f168201915b5050505050905090565b60008061045a6104f9565b90506104678185856105a7565b600191505092915050565b6000600160008473ffffffffffffffffffffffffffffffffffffffff1673ffffffffffffffffffffffffffffffffffffffff16815260200190815260200160002060008373ffffffffffffffffffffffffffffffffffffffff1673ffffffffffffffffffffffffffffffffffffffff16815260200190815260200160002054905092915050565b600033905090565b61050e838383600161069b565b505050565b600061051f8484610472565b90507fffffffffffffffffffffffffffffffffffffffffffffffffffffffffffffffff81146105a15781811015610591578281836040517ffb8f41b200000000000000000000000000000000000000000000000000000000815260040161058893929190610e62565b60405180910390fd5b6105a08484848403600061069b565b5b50505050565b600073ffffffffffffffffffffffffffffffffffffffff168373ffffffffffffffffffffffffffffffffffffffff16036106195760006040517f96c6fd1e0000000000000000000000000000000000000000000000000000000081526004016106109190610e99565b60405180910390fd5b600073ffffffffffffffffffffffffffffffffffffffff168273ffffffffffffffffffffffffffffffffffffffff160361068b5760006040517fec442f050000000000000000000000000000000000000000000000000000000081526004016106829190610e99565b60405180910390fd5b610696838383610872565b505050565b600073ffffffffffffffffffffffffffffffffffffffff168473ffffffffffffffffffffffffffffffffffffffff160361070d5760006040517fe602df050000000000000000000000000000000000000000000000000000000081526004016107049190610e99565b60405180910390fd5b600073ffffffffffffffffffffffffffffffffffffffff168373ffffffffffffffffffffffffffffffffffffffff160361077f5760006040517f94280d620000000000000000000000000000000000000000000000000000000081526004016107769190610e99565b60405180910390fd5b81600160008673ffffffffffffffffffffffffffffffffffffffff1673ffffffffffffffffffffffffffffffffffffffff16815260200190815260200160002060008573ffffffffffffffffffffffffffffffffffffffff1673ffffffffffffffffffffffffffffffffffffffff16815260200190815260200160002081905550801561086c578273ffffffffffffffffffffffffffffffffffffffff168473ffffffffffffffffffffffffffffffffffffffff167f8c5be1e5ebec7d5bd14f71427d1e84f3dd0314c0f7b2291e5b200ac8c7c3b925846040516108639190610c67565b60405180910390a35b50505050565b600073ffffffffffffffffffffffffffffffffffffffff168373ffffffffffffffffffffffffffffffffffffffff16036108c45780600260008282546108b89190610ee3565b92505081905550610997565b60008060008573ffffffffffffffffffffffffffffffffffffffff1673ffffffffffffffffffffffffffffffffffffffff16815260200190815260200160002054905081811015610950578381836040517fe450d38c00000000000000000000000000000000000000000000000000000000815260040161094793929190610e62565b60405180910390fd5b8181036000808673ffffffffffffffffffffffffffffffffffffffff1673ffffffffffffffffffffffffffffffffffffffff16815260200190815260200160002081905550505b600073ffffffffffffffffffffffffffffffffffffffff168273ffffffffffffffffffffffffffffffffffffffff16036109e05780600260008282540392505081905550610a2d565b806000808473ffffffffffffffffffffffffffffffffffffffff1673ffffffffffffffffffffffffffffffffffffffff168152602001908152602001600020600082825401925050819055505b8173ffffffffffffffffffffffffffffffffffffffff168373ffffffffffffffffffffffffffffffffffffffff167fddf252ad1be2c89b69c2b068fc378daa952ba7f163c4a11628f55a4df523b3ef83604051610a8a9190610c67565b60405180910390a3505050565b600081519050919050565b600082825260208201905092915050565b60005b83811015610ad1578082015181840152602081019050610ab6565b60008484015250505050565b6000601f19601f8301169050919050565b6000610af982610a97565b610b038185610aa2565b9350610b13818560208601610ab3565b610b1c81610add565b840191505092915050565b60006020820190508181036000830152610b418184610aee565b905092915050565b600080fd5b600073ffffffffffffffffffffffffffffffffffffffff82169050919050565b6000610b7982610b4e565b9050919050565b610b8981610b6e565b8114610b9457600080fd5b50565b600081359050610ba681610b80565b92915050565b6000819050919050565b610bbf81610bac565b8114610bca57600080fd5b50565b600081359050610bdc81610bb6565b92915050565b60008060408385031215610bf957610bf8610b49565b5b6000610c0785828601610b97565b9250506020610c1885828601610bcd565b9150509250929050565b60008115159050919050565b610c3781610c22565b82525050565b6000602082019050610c526000830184610c2e565b92915050565b610c6181610bac565b82525050565b6000602082019050610c7c6000830184610c58565b92915050565b600080600060608486031215610c9b57610c9a610b49565b5b6000610ca986828701610b97565b9350506020610cba86828701610b97565b9250506040610ccb86828701610bcd565b9150509250925092565b600060ff82169050919050565b610ceb81610cd5565b82525050565b6000602082019050610d066000830184610ce2565b92915050565b6000819050919050565b6000610d31610d2c610d2784610b4e565b610d0c565b610b4e565b9050919050565b6000610d4382610d16565b9050919050565b6000610d5582610d38565b9050919050565b610d6581610d4a565b82525050565b6000602082019050610d806000830184610d5c565b92915050565b600060208284031215610d9c57610d9b610b49565b5b6000610daa84828501610b97565b91505092915050565b60008060408385031215610dca57610dc9610b49565b5b6000610dd885828601610b97565b9250506020610de985828601610b97565b9150509250929050565b7f4e487b7100000000000000000000000000000000000000000000000000000000600052602260045260246000fd5b60006002820490506001821680610e3a57607f821691505b602082108103610e4d57610e4c610df3565b5b50919050565b610e5c81610b6e565b82525050565b6000606082019050610e776000830186610e53565b610e846020830185610c58565b610e916040830184610c58565b949350505050565b6000602082019050610eae6000830184610e53565b92915050565b7f4e487b7100000000000000000000000000000000000000000000000000000000600052601160045260246000fd5b6000610eee82610bac565b9150610ef983610bac565b9250828201905080821115610f1157610f10610eb4565b5b9291505056fea2646970667358221220ee600cd54c93479d59e8174bb7ad8ccc93791bd09af0fbba0dc02fbb8773858764736f6c634300081b0033a2646970667358221220d67d41b5aa2718e9cd98938908d95dd3392d46db562b2c4b0e0f559df2ff58a364736f6c634300081b0033",
  "linkReferences": {},
  "deployedLinkReferences": {}
}