{
  "_format": "hh-sol-artifact-1",
  "contractName": "USDT",
  "sourceName": "contracts/USDT.sol",
  "abi": [
    {
      "inputs": [],
      "stateMutability": "nonpayable",
      "type": "constructor"
    },
    {
      "inputs": [],
      "name": "ECDSAInvalidSignature",
      "type": "error"
    },
    {
      "inputs": [
        {
          "internalType": "uint256",
          "name": "length",
          "type": "uint256"
        }
      ],
      "name": "ECDSAInvalidSignatureLength",
      "type": "error"
    },
    {
      "inputs": [
        {
          "internalType": "bytes32",
          "name": "s",
          "type": "bytes32"
        }
      ],
      "name": "ECDSAInvalidSignatureS",
      "type": "error"
    },
    {
      "inputs": [
        {
          "internalType": "address",
          "name": "spender",
          "type": "address"
        },
        {
          "internalType": "uint256",
          "name": "allowance",
          "type": "uint256"
        },
        {
          "internalType": "uint256",
          "name": "needed",
          "type": "uint256"
        }
      ],
      "name": "ERC20InsufficientAllowance",
      "type": "error"
    },
    {
      "inputs": [
        {
          "internalType": "address",
          "name": "sender",
          "type": "address"
        },
        {
          "internalType": "uint256",
          "name": "balance",
          "type": "uint256"
        },
        {
          "internalType": "uint256",
          "name": "needed",
          "type": "uint256"
        }
      ],
      "name": "ERC20InsufficientBalance",
      "type": "error"
    },
    {
      "inputs": [
        {
          "internalType": "address",
          "name": "approver",
          "type": "address"
        }
      ],
      "name": "ERC20InvalidApprover",
      "type": "error"
    },
    {
      "inputs": [
        {
          "internalType": "address",
          "name": "receiver",
          "type": "address"
        }
      ],
      "name": "ERC20InvalidReceiver",
      "type": "error"
    },
    {
      "inputs": [
        {
          "internalType": "address",
          "name": "sender",
          "type": "address"
        }
      ],
      "name": "ERC20InvalidSender",
      "type": "error"
    },
    {
      "inputs": [
        {
          "internalType": "address",
          "name": "spender",
          "type": "address"
        }
      ],
      "name": "ERC20InvalidSpender",
      "type": "error"
    },
    {
      "inputs": [
        {
          "internalType": "uint256",
          "name": "deadline",
          "type": "uint256"
        }
      ],
      "name": "ERC2612ExpiredSignature",
      "type": "error"
    },
    {
      "inputs": [
        {
          "internalType": "address",
          "name": "signer",
          "type": "address"
        },
        {
          "internalType": "address",
          "name": "owner",
          "type": "address"
        }
      ],
      "name": "ERC2612InvalidSigner",
      "type": "error"
    },
    {
      "inputs": [
        {
          "internalType": "address",
          "name": "account",
          "type": "address"
        },
        {
          "internalType": "uint256",
          "name": "currentNonce",
          "type": "uint256"
        }
      ],
      "name": "InvalidAccountNonce",
      "type": "error"
    },
    {
      "inputs": [],
      "name": "InvalidShortString",
      "type": "error"
    },
    {
      "inputs": [
        {
          "internalType": "address",
          "name": "owner",
          "type": "address"
        }
      ],
      "name": "OwnableInvalidOwner",
      "type": "error"
    },
    {
      "inputs": [
        {
          "internalType": "address",
          "name": "account",
          "type": "address"
        }
      ],
      "name": "OwnableUnauthorizedAccount",
      "type": "error"
    },
    {
      "inputs": [
        {
          "internalType": "string",
          "name": "str",
          "type": "string"
        }
      ],
      "name": "StringTooLong",
      "type": "error"
    },
    {
      "anonymous": false,
      "inputs": [
        {
          "indexed": true,
          "internalType": "address",
          "name": "owner",
          "type": "address"
        },
        {
          "indexed": true,
          "internalType": "address",
          "name": "spender",
          "type": "address"
        },
        {
          "indexed": false,
          "internalType": "uint256",
          "name": "value",
          "type": "uint256"
        }
      ],
      "name": "Approval",
      "type": "event"
    },
    {
      "anonymous": false,
      "inputs": [],
      "name": "EIP712DomainChanged",
      "type": "event"
    },
    {
      "anonymous": false,
      "inputs": [
        {
          "indexed": true,
          "internalType": "address",
          "name": "previousOwner",
          "type": "address"
        },
        {
          "indexed": true,
          "internalType": "address",
          "name": "newOwner",
          "type": "address"
        }
      ],
      "name": "OwnershipTransferred",
      "type": "event"
    },
    {
      "anonymous": false,
      "inputs": [
        {
          "indexed": true,
          "internalType": "address",
          "name": "from",
          "type": "address"
        },
        {
          "indexed": true,
          "internalType": "address",
          "name": "to",
          "type": "address"
        },
        {
          "indexed": false,
          "internalType": "uint256",
          "name": "value",
          "type": "uint256"
        }
      ],
      "name": "Transfer",
      "type": "event"
    },
    {
      "inputs": [],
      "name": "DOMAIN_SEPARATOR",
      "outputs": [
        {
          "internalType": "bytes32",
          "name": "",
          "type": "bytes32"
        }
      ],
      "stateMutability": "view",
      "type": "function"
    },
    {
      "inputs": [
        {
          "internalType": "address",
          "name": "owner",
          "type": "address"
        },
        {
          "internalType": "address",
          "name": "spender",
          "type": "address"
        }
      ],
      "name": "allowance",
      "outputs": [
        {
          "internalType": "uint256",
          "name": "",
          "type": "uint256"
        }
      ],
      "stateMutability": "view",
      "type": "function"
    },
    {
      "inputs": [
        {
          "internalType": "address",
          "name": "spender",
          "type": "address"
        },
        {
          "internalType": "uint256",
          "name": "value",
          "type": "uint256"
        }
      ],
      "name": "approve",
      "outputs": [
        {
          "internalType": "bool",
          "name": "",
          "type": "bool"
        }
      ],
      "stateMutability": "nonpayable",
      "type": "function"
    },
    {
      "inputs": [
        {
          "internalType": "address",
          "name": "account",
          "type": "address"
        }
      ],
      "name": "balanceOf",
      "outputs": [
        {
          "internalType": "uint256",
          "name": "",
          "type": "uint256"
        }
      ],
      "stateMutability": "view",
      "type": "function"
    },
    {
      "inputs": [],
      "name": "decimals",
      "outputs": [
        {
          "internalType": "uint8",
          "name": "",
          "type": "uint8"
        }
      ],
      "stateMutability": "view",
      "type": "function"
    },
    {
      "inputs": [],
      "name": "eip712Domain",
      "outputs": [
        {
          "internalType": "bytes1",
          "name": "fields",
          "type": "bytes1"
        },
        {
          "internalType": "string",
          "name": "name",
          "type": "string"
        },
        {
          "internalType": "string",
          "name": "version",
          "type": "string"
        },
        {
          "internalType": "uint256",
          "name": "chainId",
          "type": "uint256"
        },
        {
          "internalType": "address",
          "name": "verifyingContract",
          "type": "address"
        },
        {
          "internalType": "bytes32",
          "name": "salt",
          "type": "bytes32"
        },
        {
          "internalType": "uint256[]",
          "name": "extensions",
          "type": "uint256[]"
        }
      ],
      "stateMutability": "view",
      "type": "function"
    },
    {
      "inputs": [
        {
          "internalType": "address",
          "name": "to",
          "type": "address"
        },
        {
          "internalType": "uint256",
          "name": "amount",
          "type": "uint256"
        }
      ],
      "name": "mint",
      "outputs": [],
      "stateMutability": "nonpayable",
      "type": "function"
    },
    {
      "inputs": [],
      "name": "name",
      "outputs": [
        {
          "internalType": "string",
          "name": "",
          "type": "string"
        }
      ],
      "stateMutability": "view",
      "type": "function"
    },
    {
      "inputs": [
        {
          "internalType": "address",
          "name": "owner",
          "type": "address"
        }
      ],
      "name": "nonces",
      "outputs": [
        {
          "internalType": "uint256",
          "name": "",
          "type": "uint256"
        }
      ],
      "stateMutability": "view",
      "type": "function"
    },
    {
      "inputs": [],
      "name": "owner",
      "outputs": [
        {
          "internalType": "address",
          "name": "",
          "type": "address"
        }
      ],
      "stateMutability": "view",
      "type": "function"
    },
    {
      "inputs": [
        {
          "internalType": "address",
          "name": "owner",
          "type": "address"
        },
        {
          "internalType": "address",
          "name": "spender",
          "type": "address"
        },
        {
          "internalType": "uint256",
          "name": "value",
          "type": "uint256"
        },
        {
          "internalType": "uint256",
          "name": "deadline",
          "type": "uint256"
        },
        {
          "internalType": "uint8",
          "name": "v",
          "type": "uint8"
        },
        {
          "internalType": "bytes32",
          "name": "r",
          "type": "bytes32"
        },
        {
          "internalType": "bytes32",
          "name": "s",
          "type": "bytes32"
        }
      ],
      "name": "permit",
      "outputs": [],
      "stateMutability": "nonpayable",
      "type": "function"
    },
    {
      "inputs": [],
      "name": "renounceOwnership",
      "outputs": [],
      "stateMutability": "nonpayable",
      "type": "function"
    },
    {
      "inputs": [],
      "name": "symbol",
      "outputs": [
        {
          "internalType": "string",
          "name": "",
          "type": "string"
        }
      ],
      "stateMutability": "view",
      "type": "function"
    },
    {
      "inputs": [],
      "name": "totalSupply",
      "outputs": [
        {
          "internalType": "uint256",
          "name": "",
          "type": "uint256"
        }
      ],
      "stateMutability": "view",
      "type": "function"
    },
    {
      "inputs": [
        {
          "internalType": "address",
          "name": "to",
          "type": "address"
        },
        {
          "internalType": "uint256",
          "name": "value",
          "type": "uint256"
        }
      ],
      "name": "transfer",
      "outputs": [
        {
          "internalType": "bool",
          "name": "",
          "type": "bool"
        }
      ],
      "stateMutability": "nonpayable",
      "type": "function"
    },
    {
      "inputs": [
        {
          "internalType": "address",
          "name": "from",
          "type": "address"
        },
        {
          "internalType": "address",
          "name": "to",
          "type": "address"
        },
        {
          "internalType": "uint256",
          "name": "value",
          "type": "uint256"
        }
      ],
      "name": "transferFrom",
      "outputs": [
        {
          "internalType": "bool",
          "name": "",
          "type": "bool"
        }
      ],
      "stateMutability": "nonpayable",
      "type": "function"
    },
    {
      "inputs": [
        {
          "internalType": "address",
          "name": "newOwner",
          "type": "address"
        }
      ],
      "name": "transferOwnership",
      "outputs": [],
      "stateMutability": "nonpayable",
      "type": "function"
    }
  ],
  "bytecode": "0x61016060405234801561001157600080fd5b506040518060400160405280600481526020017f5553445400000000000000000000000000000000000000000000000000000000815250806040518060400160405280600181526020017f3100000000000000000000000000000000000000000000000000000000000000815250336040518060400160405280600481526020017f55534454000000000000000000000000000000000000000000000000000000008152506040518060400160405280600481526020017f555344540000000000000000000000000000000000000000000000000000000081525081600390816100fb919061095f565b50806004908161010b919061095f565b505050600073ffffffffffffffffffffffffffffffffffffffff168173ffffffffffffffffffffffffffffffffffffffff16036101805760006040517f1e4fbdf70000000000000000000000000000000000000000000000000000000081526004016101779190610a72565b60405180910390fd5b61018f8161027660201b60201c565b506101a460068361033c60201b90919060201c565b61012081815250506101c060078261033c60201b90919060201c565b6101408181525050818051906020012060e08181525050808051906020012061010081815250504660a081815250506101fd61038c60201b60201c565b608081815250503073ffffffffffffffffffffffffffffffffffffffff1660c08173ffffffffffffffffffffffffffffffffffffffff16815250505050506102713361024d6103e760201b60201c565b600a6102599190610bfc565b6103e86102669190610c47565b6103f060201b60201c565b610ec8565b6000600560009054906101000a900473ffffffffffffffffffffffffffffffffffffffff16905081600560006101000a81548173ffffffffffffffffffffffffffffffffffffffff021916908373ffffffffffffffffffffffffffffffffffffffff1602179055508173ffffffffffffffffffffffffffffffffffffffff168173ffffffffffffffffffffffffffffffffffffffff167f8be0079c531659141344cd1fd0a4f28419497f9722a3daafe3b4186f6b6457e060405160405180910390a35050565b600060208351101561035e576103578361047860201b60201c565b9050610386565b8261036e836104e060201b60201c565b600001908161037d919061095f565b5060ff60001b90505b92915050565b60007f8b73c3c69bb8fe3d512ecc4cf759cc79239f7b179b0ffacaa9a75d522b39400f60e0516101005146306040516020016103cc959493929190610cb1565b60405160208183030381529060405280519060200120905090565b60006012905090565b600073ffffffffffffffffffffffffffffffffffffffff168273ffffffffffffffffffffffffffffffffffffffff16036104625760006040517fec442f050000000000000000000000000000000000000000000000000000000081526004016104599190610a72565b60405180910390fd5b610474600083836104ea60201b60201c565b5050565b600080829050601f815111156104c557826040517f305a27a90000000000000000000000000000000000000000000000000000000081526004016104bc9190610d89565b60405180910390fd5b8051816104d190610ddb565b60001c1760001b915050919050565b6000819050919050565b600073ffffffffffffffffffffffffffffffffffffffff168373ffffffffffffffffffffffffffffffffffffffff160361053c5780600260008282546105309190610e42565b9250508190555061060f565b60008060008573ffffffffffffffffffffffffffffffffffffffff1673ffffffffffffffffffffffffffffffffffffffff168152602001908152602001600020549050818110156105c8578381836040517fe450d38c0000000000000000000000000000000000000000000000000000000081526004016105bf93929190610e76565b60405180910390fd5b8181036000808673ffffffffffffffffffffffffffffffffffffffff1673ffffffffffffffffffffffffffffffffffffffff16815260200190815260200160002081905550505b600073ffffffffffffffffffffffffffffffffffffffff168273ffffffffffffffffffffffffffffffffffffffff160361065857806002600082825403925050819055506106a5565b806000808473ffffffffffffffffffffffffffffffffffffffff1673ffffffffffffffffffffffffffffffffffffffff168152602001908152602001600020600082825401925050819055505b8173ffffffffffffffffffffffffffffffffffffffff168373ffffffffffffffffffffffffffffffffffffffff167fddf252ad1be2c89b69c2b068fc378daa952ba7f163c4a11628f55a4df523b3ef836040516107029190610ead565b60405180910390a3505050565b600081519050919050565b7f4e487b7100000000000000000000000000000000000000000000000000000000600052604160045260246000fd5b7f4e487b7100000000000000000000000000000000000000000000000000000000600052602260045260246000fd5b6000600282049050600182168061079057607f821691505b6020821081036107a3576107a2610749565b5b50919050565b60008190508160005260206000209050919050565b60006020601f8301049050919050565b600082821b905092915050565b60006008830261080b7fffffffffffffffffffffffffffffffffffffffffffffffffffffffffffffffff826107ce565b61081586836107ce565b95508019841693508086168417925050509392505050565b6000819050919050565b6000819050919050565b600061085c6108576108528461082d565b610837565b61082d565b9050919050565b6000819050919050565b61087683610841565b61088a61088282610863565b8484546107db565b825550505050565b600090565b61089f610892565b6108aa81848461086d565b505050565b5b818110156108ce576108c3600082610897565b6001810190506108b0565b5050565b601f821115610913576108e4816107a9565b6108ed846107be565b810160208510156108fc578190505b610910610908856107be565b8301826108af565b50505b505050565b600082821c905092915050565b600061093660001984600802610918565b1980831691505092915050565b600061094f8383610925565b9150826002028217905092915050565b6109688261070f565b67ffffffffffffffff8111156109815761098061071a565b5b61098b8254610778565b6109968282856108d2565b600060209050601f8311600181146109c957600084156109b7578287015190505b6109c18582610943565b865550610a29565b601f1984166109d7866107a9565b60005b828110156109ff578489015182556001820191506020850194506020810190506109da565b86831015610a1c5784890151610a18601f891682610925565b8355505b6001600288020188555050505b505050505050565b600073ffffffffffffffffffffffffffffffffffffffff82169050919050565b6000610a5c82610a31565b9050919050565b610a6c81610a51565b82525050565b6000602082019050610a876000830184610a63565b92915050565b7f4e487b7100000000000000000000000000000000000000000000000000000000600052601160045260246000fd5b60008160011c9050919050565b6000808291508390505b6001851115610b1357808604811115610aef57610aee610a8d565b5b6001851615610afe5780820291505b8081029050610b0c85610abc565b9450610ad3565b94509492505050565b600082610b2c5760019050610be8565b81610b3a5760009050610be8565b8160018114610b505760028114610b5a57610b89565b6001915050610be8565b60ff841115610b6c57610b6b610a8d565b5b8360020a915084821115610b8357610b82610a8d565b5b50610be8565b5060208310610133831016604e8410600b8410161715610bbe5782820a905083811115610bb957610bb8610a8d565b5b610be8565b610bcb8484846001610ac9565b92509050818404811115610be257610be1610a8d565b5b81810290505b9392505050565b600060ff82169050919050565b6000610c078261082d565b9150610c1283610bef565b9250610c3f7fffffffffffffffffffffffffffffffffffffffffffffffffffffffffffffffff8484610b1c565b905092915050565b6000610c528261082d565b9150610c5d8361082d565b9250828202610c6b8161082d565b91508282048414831517610c8257610c81610a8d565b5b5092915050565b6000819050919050565b610c9c81610c89565b82525050565b610cab8161082d565b82525050565b600060a082019050610cc66000830188610c93565b610cd36020830187610c93565b610ce06040830186610c93565b610ced6060830185610ca2565b610cfa6080830184610a63565b9695505050505050565b600082825260208201905092915050565b60005b83811015610d33578082015181840152602081019050610d18565b60008484015250505050565b6000601f19601f8301169050919050565b6000610d5b8261070f565b610d658185610d04565b9350610d75818560208601610d15565b610d7e81610d3f565b840191505092915050565b60006020820190508181036000830152610da38184610d50565b905092915050565b600081519050919050565b6000819050602082019050919050565b6000610dd28251610c89565b80915050919050565b6000610de682610dab565b82610df084610db6565b9050610dfb81610dc6565b92506020821015610e3b57610e367fffffffffffffffffffffffffffffffffffffffffffffffffffffffffffffffff836020036008026107ce565b831692505b5050919050565b6000610e4d8261082d565b9150610e588361082d565b9250828201905080821115610e7057610e6f610a8d565b5b92915050565b6000606082019050610e8b6000830186610a63565b610e986020830185610ca2565b610ea56040830184610ca2565b949350505050565b6000602082019050610ec26000830184610ca2565b92915050565b60805160a05160c05160e051610100516101205161014051611f54610f226000396000610d7b01526000610d40015260006112900152600061126f01526000610a6c01526000610ac201526000610aeb0152611f546000f3fe608060405234801561001057600080fd5b506004361061010b5760003560e01c8063715018a6116100a257806395d89b411161007157806395d89b41146102b0578063a9059cbb146102ce578063d505accf146102fe578063dd62ed3e1461031a578063f2fde38b1461034a5761010b565b8063715018a6146102345780637ecebe001461023e57806384b0196e1461026e5780638da5cb5b146102925761010b565b8063313ce567116100de578063313ce567146101ac5780633644e515146101ca57806340c10f19146101e857806370a08231146102045761010b565b806306fdde0314610110578063095ea7b31461012e57806318160ddd1461015e57806323b872dd1461017c575b600080fd5b610118610366565b604051610125919061177d565b60405180910390f35b61014860048036038101906101439190611838565b6103f8565b6040516101559190611893565b60405180910390f35b61016661041b565b60405161017391906118bd565b60405180910390f35b610196600480360381019061019191906118d8565b610425565b6040516101a39190611893565b60405180910390f35b6101b4610454565b6040516101c19190611947565b60405180910390f35b6101d261045d565b6040516101df919061197b565b60405180910390f35b61020260048036038101906101fd9190611838565b61046c565b005b61021e60048036038101906102199190611996565b61047a565b60405161022b91906118bd565b60405180910390f35b61023c6104c2565b005b61025860048036038101906102539190611996565b6104d6565b60405161026591906118bd565b60405180910390f35b6102766104e8565b6040516102899796959493929190611acb565b60405180910390f35b61029a610592565b6040516102a79190611b4f565b60405180910390f35b6102b86105bc565b6040516102c5919061177d565b60405180910390f35b6102e860048036038101906102e39190611838565b61064e565b6040516102f59190611893565b60405180910390f35b61031860048036038101906103139190611bc2565b610671565b005b610334600480360381019061032f9190611c64565b6107b9565b60405161034191906118bd565b60405180910390f35b610364600480360381019061035f9190611996565b610840565b005b60606003805461037590611cd3565b80601f01602080910402602001604051908101604052809291908181526020018280546103a190611cd3565b80156103ee5780601f106103c3576101008083540402835291602001916103ee565b820191906000526020600020905b8154815290600101906020018083116103d157829003601f168201915b5050505050905090565b6000806104036108c6565b90506104108185856108ce565b600191505092915050565b6000600254905090565b6000806104306108c6565b905061043d8582856108e0565b610448858585610974565b60019150509392505050565b60006012905090565b6000610467610a68565b905090565b6104768282610b1f565b5050565b60008060008373ffffffffffffffffffffffffffffffffffffffff1673ffffffffffffffffffffffffffffffffffffffff168152602001908152602001600020549050919050565b6104ca610ba1565b6104d46000610c28565b565b60006104e182610cee565b9050919050565b6000606080600080600060606104fc610d37565b610504610d72565b46306000801b600067ffffffffffffffff81111561052557610524611d04565b5b6040519080825280602002602001820160405280156105535781602001602082028036833780820191505090505b507f0f00000000000000000000000000000000000000000000000000000000000000959493929190965096509650965096509650965090919293949596565b6000600560009054906101000a900473ffffffffffffffffffffffffffffffffffffffff16905090565b6060600480546105cb90611cd3565b80601f01602080910402602001604051908101604052809291908181526020018280546105f790611cd3565b80156106445780601f1061061957610100808354040283529160200191610644565b820191906000526020600020905b81548152906001019060200180831161062757829003601f168201915b5050505050905090565b6000806106596108c6565b9050610666818585610974565b600191505092915050565b834211156106b657836040517f627913020000000000000000000000000000000000000000000000000000000081526004016106ad91906118bd565b60405180910390fd5b60007f6e71edae12b1b97f4d1f60370fef10105fa2faae0126114a169c64845d6126c98888886106e58c610dad565b896040516020016106fb96959493929190611d33565b604051602081830303815290604052805190602001209050600061071e82610e04565b9050600061072e82878787610e1e565b90508973ffffffffffffffffffffffffffffffffffffffff168173ffffffffffffffffffffffffffffffffffffffff16146107a257808a6040517f4b800e46000000000000000000000000000000000000000000000000000000008152600401610799929190611d94565b60405180910390fd5b6107ad8a8a8a6108ce565b50505050505050505050565b6000600160008473ffffffffffffffffffffffffffffffffffffffff1673ffffffffffffffffffffffffffffffffffffffff16815260200190815260200160002060008373ffffffffffffffffffffffffffffffffffffffff1673ffffffffffffffffffffffffffffffffffffffff16815260200190815260200160002054905092915050565b610848610ba1565b600073ffffffffffffffffffffffffffffffffffffffff168173ffffffffffffffffffffffffffffffffffffffff16036108ba5760006040517f1e4fbdf70000000000000000000000000000000000000000000000000000000081526004016108b19190611b4f565b60405180910390fd5b6108c381610c28565b50565b600033905090565b6108db8383836001610e4e565b505050565b60006108ec84846107b9565b90507fffffffffffffffffffffffffffffffffffffffffffffffffffffffffffffffff811461096e578181101561095e578281836040517ffb8f41b200000000000000000000000000000000000000000000000000000000815260040161095593929190611dbd565b60405180910390fd5b61096d84848484036000610e4e565b5b50505050565b600073ffffffffffffffffffffffffffffffffffffffff168373ffffffffffffffffffffffffffffffffffffffff16036109e65760006040517f96c6fd1e0000000000000000000000000000000000000000000000000000000081526004016109dd9190611b4f565b60405180910390fd5b600073ffffffffffffffffffffffffffffffffffffffff168273ffffffffffffffffffffffffffffffffffffffff1603610a585760006040517fec442f05000000000000000000000000000000000000000000000000000000008152600401610a4f9190611b4f565b60405180910390fd5b610a63838383611025565b505050565b60007f000000000000000000000000000000000000000000000000000000000000000073ffffffffffffffffffffffffffffffffffffffff163073ffffffffffffffffffffffffffffffffffffffff16148015610ae457507f000000000000000000000000000000000000000000000000000000000000000046145b15610b11577f00000000000000000000000000000000000000000000000000000000000000009050610b1c565b610b1961124a565b90505b90565b600073ffffffffffffffffffffffffffffffffffffffff168273ffffffffffffffffffffffffffffffffffffffff1603610b915760006040517fec442f05000000000000000000000000000000000000000000000000000000008152600401610b889190611b4f565b60405180910390fd5b610b9d60008383611025565b5050565b610ba96108c6565b73ffffffffffffffffffffffffffffffffffffffff16610bc7610592565b73ffffffffffffffffffffffffffffffffffffffff1614610c2657610bea6108c6565b6040517f118cdaa7000000000000000000000000000000000000000000000000000000008152600401610c1d9190611b4f565b60405180910390fd5b565b6000600560009054906101000a900473ffffffffffffffffffffffffffffffffffffffff16905081600560006101000a81548173ffffffffffffffffffffffffffffffffffffffff021916908373ffffffffffffffffffffffffffffffffffffffff1602179055508173ffffffffffffffffffffffffffffffffffffffff168173ffffffffffffffffffffffffffffffffffffffff167f8be0079c531659141344cd1fd0a4f28419497f9722a3daafe3b4186f6b6457e060405160405180910390a35050565b6000600860008373ffffffffffffffffffffffffffffffffffffffff1673ffffffffffffffffffffffffffffffffffffffff168152602001908152602001600020549050919050565b6060610d6d60067f00000000000000000000000000000000000000000000000000000000000000006112e090919063ffffffff16565b905090565b6060610da860077f00000000000000000000000000000000000000000000000000000000000000006112e090919063ffffffff16565b905090565b6000600860008373ffffffffffffffffffffffffffffffffffffffff1673ffffffffffffffffffffffffffffffffffffffff1681526020019081526020016000206000815480929190600101919050559050919050565b6000610e17610e11610a68565b83611390565b9050919050565b600080600080610e30888888886113d1565b925092509250610e4082826114c5565b829350505050949350505050565b600073ffffffffffffffffffffffffffffffffffffffff168473ffffffffffffffffffffffffffffffffffffffff1603610ec05760006040517fe602df05000000000000000000000000000000000000000000000000000000008152600401610eb79190611b4f565b60405180910390fd5b600073ffffffffffffffffffffffffffffffffffffffff168373ffffffffffffffffffffffffffffffffffffffff1603610f325760006040517f94280d62000000000000000000000000000000000000000000000000000000008152600401610f299190611b4f565b60405180910390fd5b81600160008673ffffffffffffffffffffffffffffffffffffffff1673ffffffffffffffffffffffffffffffffffffffff16815260200190815260200160002060008573ffffffffffffffffffffffffffffffffffffffff1673ffffffffffffffffffffffffffffffffffffffff16815260200190815260200160002081905550801561101f578273ffffffffffffffffffffffffffffffffffffffff168473ffffffffffffffffffffffffffffffffffffffff167f8c5be1e5ebec7d5bd14f71427d1e84f3dd0314c0f7b2291e5b200ac8c7c3b9258460405161101691906118bd565b60405180910390a35b50505050565b600073ffffffffffffffffffffffffffffffffffffffff168373ffffffffffffffffffffffffffffffffffffffff160361107757806002600082825461106b9190611e23565b9250508190555061114a565b60008060008573ffffffffffffffffffffffffffffffffffffffff1673ffffffffffffffffffffffffffffffffffffffff16815260200190815260200160002054905081811015611103578381836040517fe450d38c0000000000000000000000000000000000000000000000000000000081526004016110fa93929190611dbd565b60405180910390fd5b8181036000808673ffffffffffffffffffffffffffffffffffffffff1673ffffffffffffffffffffffffffffffffffffffff16815260200190815260200160002081905550505b600073ffffffffffffffffffffffffffffffffffffffff168273ffffffffffffffffffffffffffffffffffffffff160361119357806002600082825403925050819055506111e0565b806000808473ffffffffffffffffffffffffffffffffffffffff1673ffffffffffffffffffffffffffffffffffffffff168152602001908152602001600020600082825401925050819055505b8173ffffffffffffffffffffffffffffffffffffffff168373ffffffffffffffffffffffffffffffffffffffff167fddf252ad1be2c89b69c2b068fc378daa952ba7f163c4a11628f55a4df523b3ef8360405161123d91906118bd565b60405180910390a3505050565b60007f8b73c3c69bb8fe3d512ecc4cf759cc79239f7b179b0ffacaa9a75d522b39400f7f00000000000000000000000000000000000000000000000000000000000000007f000000000000000000000000000000000000000000000000000000000000000046306040516020016112c5959493929190611e57565b60405160208183030381529060405280519060200120905090565b606060ff60001b83146112fd576112f683611629565b905061138a565b81805461130990611cd3565b80601f016020809104026020016040519081016040528092919081815260200182805461133590611cd3565b80156113825780601f1061135757610100808354040283529160200191611382565b820191906000526020600020905b81548152906001019060200180831161136557829003601f168201915b505050505090505b92915050565b60006040517f190100000000000000000000000000000000000000000000000000000000000081528360028201528260228201526042812091505092915050565b60008060007f7fffffffffffffffffffffffffffffff5d576e7357a4501ddfe92f46681b20a08460001c11156114115760006003859250925092506114bb565b6000600188888888604051600081526020016040526040516114369493929190611eaa565b6020604051602081039080840390855afa158015611458573d6000803e3d6000fd5b505050602060405103519050600073ffffffffffffffffffffffffffffffffffffffff168173ffffffffffffffffffffffffffffffffffffffff16036114ac57600060016000801b935093509350506114bb565b8060008060001b935093509350505b9450945094915050565b600060038111156114d9576114d8611eef565b5b8260038111156114ec576114eb611eef565b5b0315611625576001600381111561150657611505611eef565b5b82600381111561151957611518611eef565b5b03611550576040517ff645eedf00000000000000000000000000000000000000000000000000000000815260040160405180910390fd5b6002600381111561156457611563611eef565b5b82600381111561157757611576611eef565b5b036115bc578060001c6040517ffce698f70000000000000000000000000000000000000000000000000000000081526004016115b391906118bd565b60405180910390fd5b6003808111156115cf576115ce611eef565b5b8260038111156115e2576115e1611eef565b5b0361162457806040517fd78bce0c00000000000000000000000000000000000000000000000000000000815260040161161b919061197b565b60405180910390fd5b5b5050565b606060006116368361169d565b90506000602067ffffffffffffffff81111561165557611654611d04565b5b6040519080825280601f01601f1916602001820160405280156116875781602001600182028036833780820191505090505b5090508181528360208201528092505050919050565b60008060ff8360001c169050601f8111156116e4576040517fb3512b0c00000000000000000000000000000000000000000000000000000000815260040160405180910390fd5b80915050919050565b600081519050919050565b600082825260208201905092915050565b60005b8381101561172757808201518184015260208101905061170c565b60008484015250505050565b6000601f19601f8301169050919050565b600061174f826116ed565b61175981856116f8565b9350611769818560208601611709565b61177281611733565b840191505092915050565b600060208201905081810360008301526117978184611744565b905092915050565b600080fd5b600073ffffffffffffffffffffffffffffffffffffffff82169050919050565b60006117cf826117a4565b9050919050565b6117df816117c4565b81146117ea57600080fd5b50565b6000813590506117fc816117d6565b92915050565b6000819050919050565b61181581611802565b811461182057600080fd5b50565b6000813590506118328161180c565b92915050565b6000806040838503121561184f5761184e61179f565b5b600061185d858286016117ed565b925050602061186e85828601611823565b9150509250929050565b60008115159050919050565b61188d81611878565b82525050565b60006020820190506118a86000830184611884565b92915050565b6118b781611802565b82525050565b60006020820190506118d260008301846118ae565b92915050565b6000806000606084860312156118f1576118f061179f565b5b60006118ff868287016117ed565b9350506020611910868287016117ed565b925050604061192186828701611823565b9150509250925092565b600060ff82169050919050565b6119418161192b565b82525050565b600060208201905061195c6000830184611938565b92915050565b6000819050919050565b61197581611962565b82525050565b6000602082019050611990600083018461196c565b92915050565b6000602082840312156119ac576119ab61179f565b5b60006119ba848285016117ed565b91505092915050565b60007fff0000000000000000000000000000000000000000000000000000000000000082169050919050565b6119f8816119c3565b82525050565b611a07816117c4565b82525050565b600081519050919050565b600082825260208201905092915050565b6000819050602082019050919050565b611a4281611802565b82525050565b6000611a548383611a39565b60208301905092915050565b6000602082019050919050565b6000611a7882611a0d565b611a828185611a18565b9350611a8d83611a29565b8060005b83811015611abe578151611aa58882611a48565b9750611ab083611a60565b925050600181019050611a91565b5085935050505092915050565b600060e082019050611ae0600083018a6119ef565b8181036020830152611af28189611744565b90508181036040830152611b068188611744565b9050611b1560608301876118ae565b611b2260808301866119fe565b611b2f60a083018561196c565b81810360c0830152611b418184611a6d565b905098975050505050505050565b6000602082019050611b6460008301846119fe565b92915050565b611b738161192b565b8114611b7e57600080fd5b50565b600081359050611b9081611b6a565b92915050565b611b9f81611962565b8114611baa57600080fd5b50565b600081359050611bbc81611b96565b92915050565b600080600080600080600060e0888a031215611be157611be061179f565b5b6000611bef8a828b016117ed565b9750506020611c008a828b016117ed565b9650506040611c118a828b01611823565b9550506060611c228a828b01611823565b9450506080611c338a828b01611b81565b93505060a0611c448a828b01611bad565b92505060c0611c558a828b01611bad565b91505092959891949750929550565b60008060408385031215611c7b57611c7a61179f565b5b6000611c89858286016117ed565b9250506020611c9a858286016117ed565b9150509250929050565b7f4e487b7100000000000000000000000000000000000000000000000000000000600052602260045260246000fd5b60006002820490506001821680611ceb57607f821691505b602082108103611cfe57611cfd611ca4565b5b50919050565b7f4e487b7100000000000000000000000000000000000000000000000000000000600052604160045260246000fd5b600060c082019050611d48600083018961196c565b611d5560208301886119fe565b611d6260408301876119fe565b611d6f60608301866118ae565b611d7c60808301856118ae565b611d8960a08301846118ae565b979650505050505050565b6000604082019050611da960008301856119fe565b611db660208301846119fe565b9392505050565b6000606082019050611dd260008301866119fe565b611ddf60208301856118ae565b611dec60408301846118ae565b949350505050565b7f4e487b7100000000000000000000000000000000000000000000000000000000600052601160045260246000fd5b6000611e2e82611802565b9150611e3983611802565b9250828201905080821115611e5157611e50611df4565b5b92915050565b600060a082019050611e6c600083018861196c565b611e79602083018761196c565b611e86604083018661196c565b611e9360608301856118ae565b611ea060808301846119fe565b9695505050505050565b6000608082019050611ebf600083018761196c565b611ecc6020830186611938565b611ed9604083018561196c565b611ee6606083018461196c565b95945050505050565b7f4e487b7100000000000000000000000000000000000000000000000000000000600052602160045260246000fdfea2646970667358221220cfa3f5f59f56f4864282878a3071ac5f3ee34de10cffb8bea8474919487e3fdd64736f6c634300081b0033",
  "linkReferences": {},
  "deployedLinkReferences": {}
}